{
  "_format": "hh-sol-artifact-1",
  "contractName": "Omnipool",
  "sourceName": "contracts/Omnipool.sol",
  "abi": [
    {
      "inputs": [
        {
          "internalType": "address",
          "name": "_portal",
          "type": "address"
        },
        {
          "internalType": "address",
          "name": "_lzEndpoint",
          "type": "address"
        },
        {
          "internalType": "address",
          "name": "_routerV2",
          "type": "address"
        },
        {
          "internalType": "address",
          "name": "_interchainTokenService",
          "type": "address"
        },
        {
          "internalType": "address",
          "name": "_gasService",
          "type": "address"
        }
      ],
      "stateMutability": "nonpayable",
      "type": "constructor"
    },
    {
      "inputs": [],
      "name": "ChainNotSet",
      "type": "error"
    },
    {
      "inputs": [],
      "name": "IncorrectPath",
      "type": "error"
    },
    {
      "inputs": [],
      "name": "InsufficientInput",
      "type": "error"
    },
    {
      "inputs": [],
      "name": "InsufficientLiquidity",
      "type": "error"
    },
    {
      "inputs": [
        {
          "internalType": "uint16",
          "name": "optionType",
          "type": "uint16"
        }
      ],
      "name": "InvalidOptionType",
      "type": "error"
    },
    {
      "inputs": [],
      "name": "NotEndpoint",
      "type": "error"
    },
    {
      "inputs": [],
      "name": "NotPortal",
      "type": "error"
    },
    {
      "inputs": [
        {
          "internalType": "address",
          "name": "caller",
          "type": "address"
        }
      ],
      "name": "NotService",
      "type": "error"
    },
    {
      "inputs": [],
      "name": "NotTrustedRemote",
      "type": "error"
    },
    {
      "inputs": [
        {
          "internalType": "address",
          "name": "owner",
          "type": "address"
        }
      ],
      "name": "OwnableInvalidOwner",
      "type": "error"
    },
    {
      "inputs": [
        {
          "internalType": "address",
          "name": "account",
          "type": "address"
        }
      ],
      "name": "OwnableUnauthorizedAccount",
      "type": "error"
    },
    {
      "inputs": [
        {
          "internalType": "uint8",
          "name": "bits",
          "type": "uint8"
        },
        {
          "internalType": "uint256",
          "name": "value",
          "type": "uint256"
        }
      ],
      "name": "SafeCastOverflowedUintDowncast",
      "type": "error"
    },
    {
      "anonymous": false,
      "inputs": [],
      "name": "Else",
      "type": "event"
    },
    {
      "anonymous": false,
      "inputs": [
        {
          "indexed": false,
          "internalType": "uint256",
          "name": "",
          "type": "uint256"
        }
      ],
      "name": "Fees",
      "type": "event"
    },
    {
      "anonymous": false,
      "inputs": [],
      "name": "If",
      "type": "event"
    },
    {
      "anonymous": false,
      "inputs": [
        {
          "indexed": false,
          "internalType": "bytes",
          "name": "",
          "type": "bytes"
        }
      ],
      "name": "Logging",
      "type": "event"
    },
    {
      "anonymous": false,
      "inputs": [
        {
          "indexed": false,
          "internalType": "string",
          "name": "",
          "type": "string"
        }
      ],
      "name": "LoggingString",
      "type": "event"
    },
    {
      "anonymous": false,
      "inputs": [
        {
          "indexed": false,
          "internalType": "address",
          "name": "",
          "type": "address"
        }
      ],
      "name": "OApp",
      "type": "event"
    },
    {
      "anonymous": false,
      "inputs": [
        {
          "indexed": true,
          "internalType": "address",
          "name": "previousOwner",
          "type": "address"
        },
        {
          "indexed": true,
          "internalType": "address",
          "name": "newOwner",
          "type": "address"
        }
      ],
      "name": "OwnershipTransferred",
      "type": "event"
    },
    {
      "inputs": [
        {
          "internalType": "address",
          "name": "token",
          "type": "address"
        }
      ],
      "name": "_isITS",
      "outputs": [
        {
          "internalType": "bool",
          "name": "",
          "type": "bool"
        }
      ],
      "stateMutability": "view",
      "type": "function"
    },
    {
      "inputs": [
        {
          "internalType": "bytes32",
          "name": "commandId",
          "type": "bytes32"
        },
        {
          "internalType": "string",
          "name": "sourceChain",
          "type": "string"
        },
        {
          "internalType": "bytes",
          "name": "sourceAddress",
          "type": "bytes"
        },
        {
          "internalType": "bytes",
          "name": "data",
          "type": "bytes"
        },
        {
          "internalType": "bytes32",
          "name": "tokenId",
          "type": "bytes32"
        },
        {
          "internalType": "address",
          "name": "token",
          "type": "address"
        },
        {
          "internalType": "uint256",
          "name": "amount",
          "type": "uint256"
        }
      ],
      "name": "executeWithInterchainToken",
      "outputs": [
        {
          "internalType": "bytes32",
          "name": "",
          "type": "bytes32"
        }
      ],
      "stateMutability": "nonpayable",
      "type": "function"
    },
    {
      "inputs": [],
      "name": "gasService",
      "outputs": [
        {
          "internalType": "contract IInterchainGasService",
          "name": "",
          "type": "address"
        }
      ],
      "stateMutability": "view",
      "type": "function"
    },
    {
      "inputs": [],
      "name": "interchainTokenService",
      "outputs": [
        {
          "internalType": "address",
          "name": "",
          "type": "address"
        }
      ],
      "stateMutability": "view",
      "type": "function"
    },
    {
      "inputs": [
        {
          "internalType": "address",
          "name": "_oApp",
          "type": "address"
        },
        {
          "internalType": "bytes32",
          "name": "",
          "type": "bytes32"
        },
        {
          "internalType": "bytes",
          "name": "_message",
          "type": "bytes"
        },
        {
          "internalType": "address",
          "name": "",
          "type": "address"
        },
        {
          "internalType": "bytes",
          "name": "",
          "type": "bytes"
        }
      ],
      "name": "lzCompose",
      "outputs": [],
      "stateMutability": "payable",
      "type": "function"
    },
    {
      "inputs": [
        {
          "internalType": "uint256",
          "name": "amountIn",
          "type": "uint256"
        },
        {
          "internalType": "uint256",
          "name": "amountOutMin",
          "type": "uint256"
        },
        {
          "internalType": "address[]",
          "name": "path",
          "type": "address[]"
        }
      ],
      "name": "omniswap",
      "outputs": [],
      "stateMutability": "payable",
      "type": "function"
    },
    {
      "inputs": [],
      "name": "owner",
      "outputs": [
        {
          "internalType": "address",
          "name": "",
          "type": "address"
        }
      ],
      "stateMutability": "view",
      "type": "function"
    },
    {
      "inputs": [],
      "name": "portal",
      "outputs": [
        {
          "internalType": "contract IQuantumPortalPoc",
          "name": "",
          "type": "address"
        }
      ],
      "stateMutability": "view",
      "type": "function"
    },
    {
      "inputs": [],
      "name": "receiveNative",
      "outputs": [],
      "stateMutability": "payable",
      "type": "function"
    },
    {
      "inputs": [
        {
          "internalType": "uint256",
          "name": "amount",
          "type": "uint256"
        },
        {
          "internalType": "address",
          "name": "recipient",
          "type": "address"
        }
      ],
      "name": "release",
      "outputs": [],
      "stateMutability": "nonpayable",
      "type": "function"
    },
    {
      "inputs": [
        {
          "internalType": "uint256[]",
          "name": "chainIds",
          "type": "uint256[]"
        }
      ],
      "name": "removeRemotePeers",
      "outputs": [],
      "stateMutability": "nonpayable",
      "type": "function"
    },
    {
      "inputs": [],
      "name": "renounceOwnership",
      "outputs": [],
      "stateMutability": "nonpayable",
      "type": "function"
    },
    {
      "inputs": [],
      "name": "routerV2",
      "outputs": [
        {
          "internalType": "contract IRouterV2",
          "name": "",
          "type": "address"
        }
      ],
      "stateMutability": "view",
      "type": "function"
    },
    {
      "inputs": [
        {
          "internalType": "address",
          "name": "_bridgeToken",
          "type": "address"
        }
      ],
      "name": "setBridgeToken",
      "outputs": [],
      "stateMutability": "nonpayable",
      "type": "function"
    },
    {
      "inputs": [
        {
          "internalType": "uint256[]",
          "name": "chainIds",
          "type": "uint256[]"
        },
        {
          "internalType": "uint32[]",
          "name": "lzEids",
          "type": "uint32[]"
        },
        {
          "internalType": "string[]",
          "name": "chainNames",
          "type": "string[]"
        }
      ],
      "name": "setChainIdKeys",
      "outputs": [],
      "stateMutability": "nonpayable",
      "type": "function"
    },
    {
      "inputs": [
        {
          "internalType": "uint256",
          "name": "_feeFactor",
          "type": "uint256"
        }
      ],
      "name": "setFeeFactor",
      "outputs": [],
      "stateMutability": "nonpayable",
      "type": "function"
    },
    {
      "inputs": [
        {
          "internalType": "uint256",
          "name": "fee",
          "type": "uint256"
        }
      ],
      "name": "setQpFee",
      "outputs": [],
      "stateMutability": "nonpayable",
      "type": "function"
    },
    {
      "inputs": [
        {
          "internalType": "uint256",
          "name": "gas",
          "type": "uint256"
        }
      ],
      "name": "setRemoteExecutionGas",
      "outputs": [],
      "stateMutability": "nonpayable",
      "type": "function"
    },
    {
      "inputs": [
        {
          "internalType": "uint256",
          "name": "amountIn",
          "type": "uint256"
        },
        {
          "internalType": "uint256",
          "name": "amountOutMin",
          "type": "uint256"
        },
        {
          "internalType": "address",
          "name": "toToken",
          "type": "address"
        },
        {
          "internalType": "address",
          "name": "recipient",
          "type": "address"
        }
      ],
      "name": "swapAndTransfer",
      "outputs": [],
      "stateMutability": "nonpayable",
      "type": "function"
    },
    {
      "inputs": [
        {
          "internalType": "uint256",
          "name": "amount",
          "type": "uint256"
        }
      ],
      "name": "sweepNative",
      "outputs": [],
      "stateMutability": "nonpayable",
      "type": "function"
    },
    {
      "inputs": [],
      "name": "sweepNative",
      "outputs": [],
      "stateMutability": "nonpayable",
      "type": "function"
    },
    {
      "inputs": [
        {
          "internalType": "address",
          "name": "token",
          "type": "address"
        },
        {
          "internalType": "uint256",
          "name": "amount",
          "type": "uint256"
        }
      ],
      "name": "sweepToken",
      "outputs": [],
      "stateMutability": "nonpayable",
      "type": "function"
    },
    {
      "inputs": [
        {
          "internalType": "address[]",
          "name": "token",
          "type": "address[]"
        }
      ],
      "name": "sweepTokens",
      "outputs": [],
      "stateMutability": "nonpayable",
      "type": "function"
    },
    {
      "inputs": [
        {
          "internalType": "address",
          "name": "newOwner",
          "type": "address"
        }
      ],
      "name": "transferOwnership",
      "outputs": [],
      "stateMutability": "nonpayable",
      "type": "function"
    },
    {
      "inputs": [
        {
          "internalType": "uint256",
          "name": "",
          "type": "uint256"
        }
      ],
      "name": "trustedRemotes",
      "outputs": [
        {
          "internalType": "address",
          "name": "",
          "type": "address"
        }
      ],
      "stateMutability": "view",
      "type": "function"
    },
    {
      "inputs": [
        {
          "internalType": "uint256[]",
          "name": "chainIds",
          "type": "uint256[]"
        },
        {
          "internalType": "address[]",
          "name": "remotes",
          "type": "address[]"
        }
      ],
      "name": "updateRemotePeers",
      "outputs": [],
      "stateMutability": "nonpayable",
      "type": "function"
    }
  ],
  "bytecode": "0x60a06040523480156200001157600080fd5b506040516200579c3803806200579c833981810160405281019062000037919062000354565b8132600073ffffffffffffffffffffffffffffffffffffffff168173ffffffffffffffffffffffffffffffffffffffff1603620000ae5760006040517f1e4fbdf7000000000000000000000000000000000000000000000000000000008152600401620000a59190620003ed565b60405180910390fd5b620000bf816200022660201b60201c565b508073ffffffffffffffffffffffffffffffffffffffff1660808173ffffffffffffffffffffffffffffffffffffffff16815250505084600b60006101000a81548173ffffffffffffffffffffffffffffffffffffffff021916908373ffffffffffffffffffffffffffffffffffffffff16021790555082600c60006101000a81548173ffffffffffffffffffffffffffffffffffffffff021916908373ffffffffffffffffffffffffffffffffffffffff16021790555080600d60006101000a81548173ffffffffffffffffffffffffffffffffffffffff021916908373ffffffffffffffffffffffffffffffffffffffff16021790555083600460006101000a81548173ffffffffffffffffffffffffffffffffffffffff021916908373ffffffffffffffffffffffffffffffffffffffff1602179055506066600181905550620927c0600281905550683635c9adc5dea0000060038190555050505050506200040a565b60008060009054906101000a900473ffffffffffffffffffffffffffffffffffffffff169050816000806101000a81548173ffffffffffffffffffffffffffffffffffffffff021916908373ffffffffffffffffffffffffffffffffffffffff1602179055508173ffffffffffffffffffffffffffffffffffffffff168173ffffffffffffffffffffffffffffffffffffffff167f8be0079c531659141344cd1fd0a4f28419497f9722a3daafe3b4186f6b6457e060405160405180910390a35050565b600080fd5b600073ffffffffffffffffffffffffffffffffffffffff82169050919050565b60006200031c82620002ef565b9050919050565b6200032e816200030f565b81146200033a57600080fd5b50565b6000815190506200034e8162000323565b92915050565b600080600080600060a08688031215620003735762000372620002ea565b5b600062000383888289016200033d565b955050602062000396888289016200033d565b9450506040620003a9888289016200033d565b9350506060620003bc888289016200033d565b9250506080620003cf888289016200033d565b9150509295509295909350565b620003e7816200030f565b82525050565b6000602082019050620004046000830184620003dc565b92915050565b608051615368620004346000396000818161059b01528181610b780152611c8a01526153686000f3fe6080604052600436106101815760003560e01c80636a22d8cc116100d1578063ab803a761161008a578063c087c83711610064578063c087c83714610502578063d0a102601461052b578063e90a182f14610547578063f2fde38b1461057057610181565b8063ab803a7614610499578063b5602dd6146104b0578063ba394e22146104d957610181565b80636a22d8cc146103b15780636c6bde88146103dc578063715018a6146104055780638124fea61461041c5780638da5cb5b14610445578063909b19d91461047057610181565b80633cf3a0251161013e578063502f744611610118578063502f74461461032857806352dc3107146103535780635df500681461037c5780636425666b1461038657610181565b80633cf3a025146102995780633f31216c146102c25780634047e051146102ff57610181565b806309c6bed9146101865780630e1b3d27146101b1578063162c0700146101cd57806323ae84011461020a578063292415021461023357806339d4ce0d14610270575b600080fd5b34801561019257600080fd5b5061019b610599565b6040516101a8919061318c565b60405180910390f35b6101cb60048036038101906101c69190613256565b6105bd565b005b3480156101d957600080fd5b506101f460048036038101906101ef91906132ca565b610af5565b604051610201919061318c565b60405180910390f35b34801561021657600080fd5b50610231600480360381019061022c9190613323565b610b28565b005b34801561023f57600080fd5b5061025a60048036038101906102559190613432565b610b74565b6040516102679190613544565b60405180910390f35b34801561027c57600080fd5b50610297600480360381019061029291906135b5565b610c49565b005b3480156102a557600080fd5b506102c060048036038101906102bb91906132ca565b610cc0565b005b3480156102ce57600080fd5b506102e960048036038101906102e49190613323565b610d19565b6040516102f6919061361d565b60405180910390f35b34801561030b57600080fd5b50610326600480360381019061032191906132ca565b610d9b565b005b34801561033457600080fd5b5061033d610dad565b60405161034a9190613697565b60405180910390f35b34801561035f57600080fd5b5061037a60048036038101906103759190613a96565b610dd3565b005b610384610f64565b005b34801561039257600080fd5b5061039b610f66565b6040516103a89190613b5e565b60405180910390f35b3480156103bd57600080fd5b506103c6610f8c565b6040516103d39190613b9a565b60405180910390f35b3480156103e857600080fd5b5061040360048036038101906103fe9190613bb5565b610fb2565b005b34801561041157600080fd5b5061041a61106e565b005b34801561042857600080fd5b50610443600480360381019061043e9190613c36565b611082565b005b34801561045157600080fd5b5061045a6112e1565b604051610467919061318c565b60405180910390f35b34801561047c57600080fd5b5061049760048036038101906104929190613d39565b61130a565b005b3480156104a557600080fd5b506104ae611462565b005b3480156104bc57600080fd5b506104d760048036038101906104d291906132ca565b6114ba565b005b3480156104e557600080fd5b5061050060048036038101906104fb9190613d82565b6114cc565b005b34801561050e57600080fd5b50610529600480360381019061052491906132ca565b6116f5565b005b61054560048036038101906105409190613de9565b611707565b005b34801561055357600080fd5b5061056e60048036038101906105699190613ea5565b61189b565b005b34801561057c57600080fd5b5061059760048036038101906105929190613323565b61192d565b005b7f000000000000000000000000000000000000000000000000000000000000000081565b600084036105f7576040517ff8b3bb6100000000000000000000000000000000000000000000000000000000815260040160405180910390fd5b8181600081811061060b5761060a613ee5565b5b90506020020160208101906106209190613323565b73ffffffffffffffffffffffffffffffffffffffff166323b872dd3330876040518463ffffffff1660e01b815260040161065c93929190613f23565b6020604051808303816000875af115801561067b573d6000803e3d6000fd5b505050506040513d601f19601f8201168201806040525081019061069f9190613f86565b5060006106ac83836119b3565b9050600081036109ee5760008585858560018181106106ce576106cd613ee5565b5b90506020020160208101906106e39190613323565b336040516024016106f79493929190613fb3565b6040516020818303038152906040527fba394e22000000000000000000000000000000000000000000000000000000007bffffffffffffffffffffffffffffffffffffffffffffffffffffffff19166020820180517bffffffffffffffffffffffffffffffffffffffffffffffffffffffff83818316178352505050509050600b60009054906101000a900473ffffffffffffffffffffffffffffffffffffffff1673ffffffffffffffffffffffffffffffffffffffff1663647846a56040518163ffffffff1660e01b8152600401602060405180830381865afa1580156107e3573d6000803e3d6000fd5b505050506040513d601f19601f82011682018060405250810190610807919061400d565b73ffffffffffffffffffffffffffffffffffffffff1663a9059cbb600b60009054906101000a900473ffffffffffffffffffffffffffffffffffffffff1673ffffffffffffffffffffffffffffffffffffffff1663cd3c695a6040518163ffffffff1660e01b8152600401602060405180830381865afa15801561088f573d6000803e3d6000fd5b505050506040513d601f19601f820116820180604052508101906108b3919061400d565b6003546040518363ffffffff1660e01b81526004016108d392919061403a565b6020604051808303816000875af11580156108f2573d6000803e3d6000fd5b505050506040513d601f19601f820116820180604052508101906109169190613f86565b50600b60009054906101000a900473ffffffffffffffffffffffffffffffffffffffff1673ffffffffffffffffffffffffffffffffffffffff166359ff51cc61210560056000612105815260200190815260200160002060009054906101000a900473ffffffffffffffffffffffffffffffffffffffff166109966112e1565b856040518563ffffffff1660e01b81526004016109b69493929190614105565b600060405180830381600087803b1580156109d057600080fd5b505af11580156109e4573d6000803e3d6000fd5b5050505050610aee565b60008484846000818110610a0557610a04613ee5565b5b9050602002016020810190610a1a9190613323565b33604051602001610a2d93929190614151565b6040516020818303038152906040529050610a6f84846000818110610a5557610a54613ee5565b5b9050602002016020810190610a6a9190613323565b610d19565b15610ab257610aad8685856000818110610a8c57610a8b613ee5565b5b9050602002016020810190610aa19190613323565b83600254612105611b37565b610aec565b610aeb8685856000818110610aca57610ac9613ee5565b5b9050602002016020810190610adf9190613323565b83600254612105611dd7565b5b505b5050505050565b60056020528060005260406000206000915054906101000a900473ffffffffffffffffffffffffffffffffffffffff1681565b610b30611fc4565b80600a60006101000a81548173ffffffffffffffffffffffffffffffffffffffff021916908373ffffffffffffffffffffffffffffffffffffffff16021790555050565b60007f000000000000000000000000000000000000000000000000000000000000000073ffffffffffffffffffffffffffffffffffffffff163373ffffffffffffffffffffffffffffffffffffffff1614610c0657336040517f0d6c7be9000000000000000000000000000000000000000000000000000000008152600401610bfd919061318c565b60405180910390fd5b610c188b8b8b8b8b8b8b8b8b8b61204b565b7fe84001f3dedacf7f9ddc370e9f09c26b37473e9e959ffdc4925f6fe33c9877e490509a9950505050505050505050565b610c51611fc4565b60005b82829050811015610cbb5760056000848484818110610c7657610c75613ee5565b5b90506020020135815260200190815260200160002060006101000a81549073ffffffffffffffffffffffffffffffffffffffff02191690558080600101915050610c54565b505050565b610cc8611fc4565b610cd06112e1565b73ffffffffffffffffffffffffffffffffffffffff166108fc829081150290604051600060405180830381858888f19350505050158015610d15573d6000803e3d6000fd5b5050565b60008173ffffffffffffffffffffffffffffffffffffffff1663129d81886040518163ffffffff1660e01b8152600401602060405180830381865afa925050508015610d8357506040513d601f19601f82011682018060405250810190610d80919061419d565b60015b610d905760009050610d96565b60019150505b919050565b610da3611fc4565b8060028190555050565b600c60009054906101000a900473ffffffffffffffffffffffffffffffffffffffff1681565b610ddb611fc4565b60005b8351811015610f5e57828181518110610dfa57610df9613ee5565b5b602002602001015160066000868481518110610e1957610e18613ee5565b5b6020026020010151815260200190815260200160002060006101000a81548163ffffffff021916908363ffffffff160217905550818181518110610e6057610e5f613ee5565b5b602002602001015160086000868481518110610e7f57610e7e613ee5565b5b602002602001015181526020019081526020016000209081610ea191906143d7565b50838181518110610eb557610eb4613ee5565b5b602002602001015160076000858481518110610ed457610ed3613ee5565b5b602002602001015163ffffffff1663ffffffff16815260200190815260200160002081905550838181518110610f0d57610f0c613ee5565b5b60200260200101516009838381518110610f2a57610f29613ee5565b5b6020026020010151604051610f3f91906144e5565b9081526020016040518091039020819055508080600101915050610dde565b50505050565b565b600b60009054906101000a900473ffffffffffffffffffffffffffffffffffffffff1681565b600d60009054906101000a900473ffffffffffffffffffffffffffffffffffffffff1681565b610fba611fc4565b60005b8484905081101561106757828282818110610fdb57610fda613ee5565b5b9050602002016020810190610ff09190613323565b6005600087878581811061100757611006613ee5565b5b90506020020135815260200190815260200160002060006101000a81548173ffffffffffffffffffffffffffffffffffffffff021916908373ffffffffffffffffffffffffffffffffffffffff1602179055508080600101915050610fbd565b5050505050565b611076611fc4565b6110806000612667565b565b600b60009054906101000a900473ffffffffffffffffffffffffffffffffffffffff1673ffffffffffffffffffffffffffffffffffffffff163373ffffffffffffffffffffffffffffffffffffffff1614611109576040517f3f94bdf300000000000000000000000000000000000000000000000000000000815260040160405180910390fd5b600080600b60009054906101000a900473ffffffffffffffffffffffffffffffffffffffff1673ffffffffffffffffffffffffffffffffffffffff1663d737d0c76040518163ffffffff1660e01b8152600401606060405180830381865afa158015611179573d6000803e3d6000fd5b505050506040513d601f19601f8201168201806040525081019061119d9190614511565b50915091508073ffffffffffffffffffffffffffffffffffffffff166005600084815260200190815260200160002060009054906101000a900473ffffffffffffffffffffffffffffffffffffffff1673ffffffffffffffffffffffffffffffffffffffff161461123a576040517fca90f86e00000000000000000000000000000000000000000000000000000000815260040160405180910390fd5b600a60009054906101000a900473ffffffffffffffffffffffffffffffffffffffff1673ffffffffffffffffffffffffffffffffffffffff1663a9059cbb84866040518363ffffffff1660e01b815260040161129792919061403a565b6020604051808303816000875af11580156112b6573d6000803e3d6000fd5b505050506040513d601f19601f820116820180604052508101906112da9190613f86565b5050505050565b60008060009054906101000a900473ffffffffffffffffffffffffffffffffffffffff16905090565b611312611fc4565b60005b815181101561145e5781818151811061133157611330613ee5565b5b602002602001015173ffffffffffffffffffffffffffffffffffffffff1663a9059cbb61135c6112e1565b84848151811061136f5761136e613ee5565b5b602002602001015173ffffffffffffffffffffffffffffffffffffffff166370a08231306040518263ffffffff1660e01b81526004016113af919061318c565b602060405180830381865afa1580156113cc573d6000803e3d6000fd5b505050506040513d601f19601f820116820180604052508101906113f09190614564565b6040518363ffffffff1660e01b815260040161140d92919061403a565b6020604051808303816000875af115801561142c573d6000803e3d6000fd5b505050506040513d601f19601f820116820180604052508101906114509190613f86565b508080600101915050611315565b5050565b61146a611fc4565b6114726112e1565b73ffffffffffffffffffffffffffffffffffffffff166108fc479081150290604051600060405180830381858888f193505050501580156114b7573d6000803e3d6000fd5b50565b6114c2611fc4565b8060018190555050565b600b60009054906101000a900473ffffffffffffffffffffffffffffffffffffffff1673ffffffffffffffffffffffffffffffffffffffff163373ffffffffffffffffffffffffffffffffffffffff1614611553576040517f3f94bdf300000000000000000000000000000000000000000000000000000000815260040160405180910390fd5b600080600b60009054906101000a900473ffffffffffffffffffffffffffffffffffffffff1673ffffffffffffffffffffffffffffffffffffffff1663d737d0c76040518163ffffffff1660e01b8152600401606060405180830381865afa1580156115c3573d6000803e3d6000fd5b505050506040513d601f19601f820116820180604052508101906115e79190614511565b50915091508073ffffffffffffffffffffffffffffffffffffffff166005600084815260200190815260200160002060009054906101000a900473ffffffffffffffffffffffffffffffffffffffff1673ffffffffffffffffffffffffffffffffffffffff1614611684576040517fca90f86e00000000000000000000000000000000000000000000000000000000815260040160405180910390fd5b600061169187878761272b565b9050600084866040516020016116a8929190614591565b60405160208183030381529060405290506116c286610d19565b156116db576116d682878361ea6088611b37565b6116eb565b6116ea82878361ea6088611dd7565b5b5050505050505050565b6116fd611fc4565b8060038190555050565b7f8c333708074e054de17bdea57c2ade12e24c3f54c5157b36108d1526592f6ff685856040516117389291906145e7565b60405180910390a1600460009054906101000a900473ffffffffffffffffffffffffffffffffffffffff1673ffffffffffffffffffffffffffffffffffffffff163373ffffffffffffffffffffffffffffffffffffffff16146117c7576040517f7ee14dfd00000000000000000000000000000000000000000000000000000000815260040160405180910390fd5b7f6f2739c23e9c642d75def4c3c887a514a1605cd7ed69f5a2035d0afb65b2a39a876040516117f6919061318c565b60405180910390a1600061180a86866129e0565b905060006118188787612a12565b905060006118268888612a75565b90506040825103611862577fe28a83fabb7e74a8e12a7cfcb5488660a113fed384e500aa2cacc5e6b570eda860405160405180910390a161188f565b7f40a4df73a82a1876ccdfcb4a4a15568a2ee66b5080a9e47e9e4674f7523fb06760405160405180910390a15b50505050505050505050565b6118a3611fc4565b8173ffffffffffffffffffffffffffffffffffffffff1663a9059cbb6118c76112e1565b836040518363ffffffff1660e01b81526004016118e592919061403a565b6020604051808303816000875af1158015611904573d6000803e3d6000fd5b505050506040513d601f19601f820116820180604052508101906119289190613f86565b505050565b611935611fc4565b600073ffffffffffffffffffffffffffffffffffffffff168173ffffffffffffffffffffffffffffffffffffffff16036119a75760006040517f1e4fbdf700000000000000000000000000000000000000000000000000000000815260040161199e919061318c565b60405180910390fd5b6119b081612667565b50565b600060028383905010156119f3576040517f9046666e00000000000000000000000000000000000000000000000000000000815260040160405180910390fd5b600a60009054906101000a900473ffffffffffffffffffffffffffffffffffffffff1673ffffffffffffffffffffffffffffffffffffffff1683836000818110611a4057611a3f613ee5565b5b9050602002016020810190611a559190613323565b73ffffffffffffffffffffffffffffffffffffffff1603611a795760009050611b31565b600a60009054906101000a900473ffffffffffffffffffffffffffffffffffffffff1673ffffffffffffffffffffffffffffffffffffffff1683836001818110611ac657611ac5613ee5565b5b9050602002016020810190611adb9190613323565b73ffffffffffffffffffffffffffffffffffffffff1603611aff5760019050611b31565b6040517f9046666e00000000000000000000000000000000000000000000000000000000815260040160405180910390fd5b92915050565b60006064600154600d60009054906101000a900473ffffffffffffffffffffffffffffffffffffffff1673ffffffffffffffffffffffffffffffffffffffff1663135eaa70611b8586612aa7565b611bc16005600089815260200190815260200160002060009054906101000a900473ffffffffffffffffffffffffffffffffffffffff16612b8d565b8989600067ffffffffffffffff811115611bde57611bdd6136c3565b5b6040519080825280601f01601f191660200182016040528015611c105781602001600182028036833780820191505090505b506040518663ffffffff1660e01b8152600401611c31959493929190614655565b602060405180830381865afa158015611c4e573d6000803e3d6000fd5b505050506040513d601f19601f82011682018060405250810190611c729190614564565b611c7c91906146f3565b611c869190614764565b90507f000000000000000000000000000000000000000000000000000000000000000073ffffffffffffffffffffffffffffffffffffffff16634b4578ba828773ffffffffffffffffffffffffffffffffffffffff1663129d81886040518163ffffffff1660e01b8152600401602060405180830381865afa158015611d10573d6000803e3d6000fd5b505050506040513d601f19601f82011682018060405250810190611d34919061419d565b611d3d86612aa7565b611d796005600089815260200190815260200160002060009054906101000a900473ffffffffffffffffffffffffffffffffffffffff16612b8d565b8b8a886040518863ffffffff1660e01b8152600401611d9d96959493929190614795565b6000604051808303818588803b158015611db657600080fd5b505af1158015611dca573d6000803e3d6000fd5b5050505050505050505050565b6000611e106000846000611e0061ea606000611df1612bee565b612c169092919063ffffffff16565b612cb1909392919063ffffffff16565b905060006040518060e00160405280611e2885612d4e565b63ffffffff168152602001611e6f6005600087815260200190815260200160002060009054906101000a900473ffffffffffffffffffffffffffffffffffffffff16612dc0565b8152602001611e7e8989612de3565b8152602001611e8d8989612de3565b815260200183815260200186815260200160405180602001604052806000815250815250905060008673ffffffffffffffffffffffffffffffffffffffff16633b6f743b8360006040518363ffffffff1660e01b8152600401611ef192919061492c565b6040805180830381865afa158015611f0d573d6000803e3d6000fd5b505050506040513d601f19601f82011682018060405250810190611f3191906149b1565b90508673ffffffffffffffffffffffffffffffffffffffff1663c7c7f5b382600001518484336040518563ffffffff1660e01b8152600401611f7593929190614a0d565b60c06040518083038185885af1158015611f93573d6000803e3d6000fd5b50505050506040513d601f19601f82011682018060405250810190611fb89190614b2b565b50505050505050505050565b611fcc612e77565b73ffffffffffffffffffffffffffffffffffffffff16611fea6112e1565b73ffffffffffffffffffffffffffffffffffffffff16146120495761200d612e77565b6040517f118cdaa7000000000000000000000000000000000000000000000000000000008152600401612040919061318c565b60405180910390fd5b565b61209887878080601f016020809104026020016040519081016040528093929190818152602001838380828437600081840152601f19601f82011690508083019250505050505050612e7f565b73ffffffffffffffffffffffffffffffffffffffff16600560006120ff8c8c8080601f016020809104026020016040519081016040528093929190818152602001838380828437600081840152601f19601f82011690508083019250505050505050612e8d565b815260200190815260200160002060009054906101000a900473ffffffffffffffffffffffffffffffffffffffff1673ffffffffffffffffffffffffffffffffffffffff161461217b576040517fca90f86e00000000000000000000000000000000000000000000000000000000815260040160405180910390fd5b6040858590500361221f57600085858101906121979190614ba9565b5090508273ffffffffffffffffffffffffffffffffffffffff1663a9059cbb82846040518363ffffffff1660e01b81526004016121d592919061403a565b6020604051808303816000875af11580156121f4573d6000803e3d6000fd5b505050506040513d601f19601f820116820180604052508101906122189190613f86565b505061265b565b8173ffffffffffffffffffffffffffffffffffffffff1663095ea7b3600c60009054906101000a900473ffffffffffffffffffffffffffffffffffffffff16836040518363ffffffff1660e01b815260040161227c92919061403a565b6020604051808303816000875af115801561229b573d6000803e3d6000fd5b505050506040513d601f19601f820116820180604052508101906122bf9190613f86565b5060008086868101906122d29190614be9565b925050915060006123268c8c8080601f016020809104026020016040519081016040528093929190818152602001838380828437600081840152601f19601f82011690508083019250505050505050612e8d565b905060006123578585600a60009054906101000a900473ffffffffffffffffffffffffffffffffffffffff1661272b565b9050600b60009054906101000a900473ffffffffffffffffffffffffffffffffffffffff1673ffffffffffffffffffffffffffffffffffffffff1663647846a56040518163ffffffff1660e01b8152600401602060405180830381865afa1580156123c6573d6000803e3d6000fd5b505050506040513d601f19601f820116820180604052508101906123ea919061400d565b73ffffffffffffffffffffffffffffffffffffffff1663a9059cbb600b60009054906101000a900473ffffffffffffffffffffffffffffffffffffffff1673ffffffffffffffffffffffffffffffffffffffff1663cd3c695a6040518163ffffffff1660e01b8152600401602060405180830381865afa158015612472573d6000803e3d6000fd5b505050506040513d601f19601f82011682018060405250810190612496919061400d565b6003546040518363ffffffff1660e01b81526004016124b692919061403a565b6020604051808303816000875af11580156124d5573d6000803e3d6000fd5b505050506040513d601f19601f820116820180604052508101906124f99190613f86565b50600b60009054906101000a900473ffffffffffffffffffffffffffffffffffffffff1673ffffffffffffffffffffffffffffffffffffffff166359ff51cc836005600086815260200190815260200160002060009054906101000a900473ffffffffffffffffffffffffffffffffffffffff166125756112e1565b8588604051602401612588929190614c3c565b6040516020818303038152906040527f8124fea6000000000000000000000000000000000000000000000000000000007bffffffffffffffffffffffffffffffffffffffffffffffffffffffff19166020820180517bffffffffffffffffffffffffffffffffffffffffffffffffffffffff83818316178352505050506040518563ffffffff1660e01b81526004016126249493929190614105565b600060405180830381600087803b15801561263e57600080fd5b505af1158015612652573d6000803e3d6000fd5b50505050505050505b50505050505050505050565b60008060009054906101000a900473ffffffffffffffffffffffffffffffffffffffff169050816000806101000a81548173ffffffffffffffffffffffffffffffffffffffff021916908373ffffffffffffffffffffffffffffffffffffffff1602179055508173ffffffffffffffffffffffffffffffffffffffff168173ffffffffffffffffffffffffffffffffffffffff167f8be0079c531659141344cd1fd0a4f28419497f9722a3daafe3b4186f6b6457e060405160405180910390a35050565b6000600a60009054906101000a900473ffffffffffffffffffffffffffffffffffffffff1673ffffffffffffffffffffffffffffffffffffffff1663095ea7b3600c60009054906101000a900473ffffffffffffffffffffffffffffffffffffffff16866040518363ffffffff1660e01b81526004016127ac92919061403a565b6020604051808303816000875af11580156127cb573d6000803e3d6000fd5b505050506040513d601f19601f820116820180604052508101906127ef9190613f86565b506000600267ffffffffffffffff81111561280d5761280c6136c3565b5b60405190808252806020026020018201604052801561283b5781602001602082028036833780820191505090505b509050600a60009054906101000a900473ffffffffffffffffffffffffffffffffffffffff168160008151811061287557612874613ee5565b5b602002602001019073ffffffffffffffffffffffffffffffffffffffff16908173ffffffffffffffffffffffffffffffffffffffff168152505082816001815181106128c4576128c3613ee5565b5b602002602001019073ffffffffffffffffffffffffffffffffffffffff16908173ffffffffffffffffffffffffffffffffffffffff16815250506000600c60009054906101000a900473ffffffffffffffffffffffffffffffffffffffff1673ffffffffffffffffffffffffffffffffffffffff166338ed173987878530600a4261294f9190614c65565b6040518663ffffffff1660e01b815260040161296f959493929190614d57565b6000604051808303816000875af115801561298e573d6000803e3d6000fd5b505050506040513d6000823e3d601f19601f820116820180604052508101906129b79190614e48565b9050806001815181106129cd576129cc613ee5565b5b6020026020010151925050509392505050565b60008282600c60ff1690602c60ff16926129fc93929190614e9b565b90612a079190614ee1565b60001c905092915050565b60608282604c60ff16908092612a2a93929190614e9b565b8080601f016020809104026020016040519081016040528093929190818152602001838380828437600081840152601f19601f82011690508083019250505050505050905092915050565b60008282600860ff1690600c60ff1692612a9193929190614e9b565b90612a9c9190614f6c565b60e01c905092915050565b60606000600860008481526020019081526020016000208054612ac990614204565b80601f0160208091040260200160405190810160405280929190818152602001828054612af590614204565b8015612b425780601f10612b1757610100808354040283529160200191612b42565b820191906000526020600020905b815481529060010190602001808311612b2557829003601f168201915b505050505090506000815103612b84576040517f0d0fa6c500000000000000000000000000000000000000000000000000000000815260040160405180910390fd5b80915050919050565b6060601467ffffffffffffffff811115612baa57612ba96136c3565b5b6040519080825280601f01601f191660200182016040528015612bdc5781602001600182028036833780820191505090505b50905081601482015260148152919050565b60606003604051602001612c02919061500f565b604051602081830303815290604052905090565b606083600361ffff16612c33600083612ef490919063ffffffff16565b61ffff1614612c8c57612c50600082612ef490919063ffffffff16565b6040517f3a51740d000000000000000000000000000000000000000000000000000000008152600401612c839190615039565b60405180910390fd5b6000612c988585612f5b565b9050612ca686600183612fc7565b925050509392505050565b606084600361ffff16612cce600083612ef490919063ffffffff16565b61ffff1614612d2757612ceb600082612ef490919063ffffffff16565b6040517f3a51740d000000000000000000000000000000000000000000000000000000008152600401612d1e9190615039565b60405180910390fd5b6000612d34868686613084565b9050612d4287600383612fc7565b92505050949350505050565b6000806006600084815260200190815260200160002060009054906101000a900463ffffffff16905060008163ffffffff1603612db7576040517f0d0fa6c500000000000000000000000000000000000000000000000000000000815260040160405180910390fd5b80915050919050565b60008173ffffffffffffffffffffffffffffffffffffffff1660001b9050919050565b6000808273ffffffffffffffffffffffffffffffffffffffff1663963efcaa6040518163ffffffff1660e01b8152600401602060405180830381865afa158015612e31573d6000803e3d6000fd5b505050506040513d601f19601f82011682018060405250810190612e559190614564565b9050808185612e649190614764565b612e6e91906146f3565b91505092915050565b600033905090565b600060148201519050919050565b600080600983604051612ea091906144e5565b908152602001604051809103902054905060008103612eeb576040517f0d0fa6c500000000000000000000000000000000000000000000000000000000815260040160405180910390fd5b80915050919050565b6000600282612f039190614c65565b83511015612f46576040517f08c379a0000000000000000000000000000000000000000000000000000000008152600401612f3d906150a0565b60405180910390fd5b60008260028501015190508091505092915050565b60606000826fffffffffffffffffffffffffffffffff1614612f9e578282604051602001612f8a929190615112565b604051602081830303815290604052612fbf565b82604051602001612faf919061513e565b6040516020818303038152906040525b905092915050565b606083600361ffff16612fe4600083612ef490919063ffffffff16565b61ffff161461303d57613001600082612ef490919063ffffffff16565b6040517f3a51740d0000000000000000000000000000000000000000000000000000000081526004016130349190615039565b60405180910390fd5b8460018061304b86516130f5565b6130559190615159565b868660405160200161306b95949392919061520e565b6040516020818303038152906040529150509392505050565b60606000826fffffffffffffffffffffffffffffffff16146130c9578383836040516020016130b593929190615265565b6040516020818303038152906040526130ec565b83836040516020016130dc9291906152a2565b6040516020818303038152906040525b90509392505050565b600061ffff8016821115613143576010826040517f6dfcc65000000000000000000000000000000000000000000000000000000000815260040161313a929190615309565b60405180910390fd5b819050919050565b600073ffffffffffffffffffffffffffffffffffffffff82169050919050565b60006131768261314b565b9050919050565b6131868161316b565b82525050565b60006020820190506131a1600083018461317d565b92915050565b6000604051905090565b600080fd5b600080fd5b6000819050919050565b6131ce816131bb565b81146131d957600080fd5b50565b6000813590506131eb816131c5565b92915050565b600080fd5b600080fd5b600080fd5b60008083601f840112613216576132156131f1565b5b8235905067ffffffffffffffff811115613233576132326131f6565b5b60208301915083602082028301111561324f5761324e6131fb565b5b9250929050565b600080600080606085870312156132705761326f6131b1565b5b600061327e878288016131dc565b945050602061328f878288016131dc565b935050604085013567ffffffffffffffff8111156132b0576132af6131b6565b5b6132bc87828801613200565b925092505092959194509250565b6000602082840312156132e0576132df6131b1565b5b60006132ee848285016131dc565b91505092915050565b6133008161316b565b811461330b57600080fd5b50565b60008135905061331d816132f7565b92915050565b600060208284031215613339576133386131b1565b5b60006133478482850161330e565b91505092915050565b6000819050919050565b61336381613350565b811461336e57600080fd5b50565b6000813590506133808161335a565b92915050565b60008083601f84011261339c5761339b6131f1565b5b8235905067ffffffffffffffff8111156133b9576133b86131f6565b5b6020830191508360018202830111156133d5576133d46131fb565b5b9250929050565b60008083601f8401126133f2576133f16131f1565b5b8235905067ffffffffffffffff81111561340f5761340e6131f6565b5b60208301915083600182028301111561342b5761342a6131fb565b5b9250929050565b60008060008060008060008060008060e08b8d031215613455576134546131b1565b5b60006134638d828e01613371565b9a505060208b013567ffffffffffffffff811115613484576134836131b6565b5b6134908d828e01613386565b995099505060408b013567ffffffffffffffff8111156134b3576134b26131b6565b5b6134bf8d828e016133dc565b975097505060608b013567ffffffffffffffff8111156134e2576134e16131b6565b5b6134ee8d828e016133dc565b955095505060806135018d828e01613371565b93505060a06135128d828e0161330e565b92505060c06135238d828e016131dc565b9150509295989b9194979a5092959850565b61353e81613350565b82525050565b60006020820190506135596000830184613535565b92915050565b60008083601f840112613575576135746131f1565b5b8235905067ffffffffffffffff811115613592576135916131f6565b5b6020830191508360208202830111156135ae576135ad6131fb565b5b9250929050565b600080602083850312156135cc576135cb6131b1565b5b600083013567ffffffffffffffff8111156135ea576135e96131b6565b5b6135f68582860161355f565b92509250509250929050565b60008115159050919050565b61361781613602565b82525050565b6000602082019050613632600083018461360e565b92915050565b6000819050919050565b600061365d6136586136538461314b565b613638565b61314b565b9050919050565b600061366f82613642565b9050919050565b600061368182613664565b9050919050565b61369181613676565b82525050565b60006020820190506136ac6000830184613688565b92915050565b6000601f19601f8301169050919050565b7f4e487b7100000000000000000000000000000000000000000000000000000000600052604160045260246000fd5b6136fb826136b2565b810181811067ffffffffffffffff8211171561371a576137196136c3565b5b80604052505050565b600061372d6131a7565b905061373982826136f2565b919050565b600067ffffffffffffffff821115613759576137586136c3565b5b602082029050602081019050919050565b600061377d6137788461373e565b613723565b905080838252602082019050602084028301858111156137a05761379f6131fb565b5b835b818110156137c957806137b588826131dc565b8452602084019350506020810190506137a2565b5050509392505050565b600082601f8301126137e8576137e76131f1565b5b81356137f884826020860161376a565b91505092915050565b600067ffffffffffffffff82111561381c5761381b6136c3565b5b602082029050602081019050919050565b600063ffffffff82169050919050565b6138468161382d565b811461385157600080fd5b50565b6000813590506138638161383d565b92915050565b600061387c61387784613801565b613723565b9050808382526020820190506020840283018581111561389f5761389e6131fb565b5b835b818110156138c857806138b48882613854565b8452602084019350506020810190506138a1565b5050509392505050565b600082601f8301126138e7576138e66131f1565b5b81356138f7848260208601613869565b91505092915050565b600067ffffffffffffffff82111561391b5761391a6136c3565b5b602082029050602081019050919050565b600080fd5b600067ffffffffffffffff82111561394c5761394b6136c3565b5b613955826136b2565b9050602081019050919050565b82818337600083830152505050565b600061398461397f84613931565b613723565b9050828152602081018484840111156139a05761399f61392c565b5b6139ab848285613962565b509392505050565b600082601f8301126139c8576139c76131f1565b5b81356139d8848260208601613971565b91505092915050565b60006139f46139ef84613900565b613723565b90508083825260208201905060208402830185811115613a1757613a166131fb565b5b835b81811015613a5e57803567ffffffffffffffff811115613a3c57613a3b6131f1565b5b808601613a4989826139b3565b85526020850194505050602081019050613a19565b5050509392505050565b600082601f830112613a7d57613a7c6131f1565b5b8135613a8d8482602086016139e1565b91505092915050565b600080600060608486031215613aaf57613aae6131b1565b5b600084013567ffffffffffffffff811115613acd57613acc6131b6565b5b613ad9868287016137d3565b935050602084013567ffffffffffffffff811115613afa57613af96131b6565b5b613b06868287016138d2565b925050604084013567ffffffffffffffff811115613b2757613b266131b6565b5b613b3386828701613a68565b9150509250925092565b6000613b4882613664565b9050919050565b613b5881613b3d565b82525050565b6000602082019050613b736000830184613b4f565b92915050565b6000613b8482613664565b9050919050565b613b9481613b79565b82525050565b6000602082019050613baf6000830184613b8b565b92915050565b60008060008060408587031215613bcf57613bce6131b1565b5b600085013567ffffffffffffffff811115613bed57613bec6131b6565b5b613bf98782880161355f565b9450945050602085013567ffffffffffffffff811115613c1c57613c1b6131b6565b5b613c2887828801613200565b925092505092959194509250565b60008060408385031215613c4d57613c4c6131b1565b5b6000613c5b858286016131dc565b9250506020613c6c8582860161330e565b9150509250929050565b600067ffffffffffffffff821115613c9157613c906136c3565b5b602082029050602081019050919050565b6000613cb5613cb084613c76565b613723565b90508083825260208201905060208402830185811115613cd857613cd76131fb565b5b835b81811015613d015780613ced888261330e565b845260208401935050602081019050613cda565b5050509392505050565b600082601f830112613d2057613d1f6131f1565b5b8135613d30848260208601613ca2565b91505092915050565b600060208284031215613d4f57613d4e6131b1565b5b600082013567ffffffffffffffff811115613d6d57613d6c6131b6565b5b613d7984828501613d0b565b91505092915050565b60008060008060808587031215613d9c57613d9b6131b1565b5b6000613daa878288016131dc565b9450506020613dbb878288016131dc565b9350506040613dcc8782880161330e565b9250506060613ddd8782880161330e565b91505092959194509250565b600080600080600080600060a0888a031215613e0857613e076131b1565b5b6000613e168a828b0161330e565b9750506020613e278a828b01613371565b965050604088013567ffffffffffffffff811115613e4857613e476131b6565b5b613e548a828b016133dc565b95509550506060613e678a828b0161330e565b935050608088013567ffffffffffffffff811115613e8857613e876131b6565b5b613e948a828b016133dc565b925092505092959891949750929550565b60008060408385031215613ebc57613ebb6131b1565b5b6000613eca8582860161330e565b9250506020613edb858286016131dc565b9150509250929050565b7f4e487b7100000000000000000000000000000000000000000000000000000000600052603260045260246000fd5b613f1d816131bb565b82525050565b6000606082019050613f38600083018661317d565b613f45602083018561317d565b613f526040830184613f14565b949350505050565b613f6381613602565b8114613f6e57600080fd5b50565b600081519050613f8081613f5a565b92915050565b600060208284031215613f9c57613f9b6131b1565b5b6000613faa84828501613f71565b91505092915050565b6000608082019050613fc86000830187613f14565b613fd56020830186613f14565b613fe2604083018561317d565b613fef606083018461317d565b95945050505050565b600081519050614007816132f7565b92915050565b600060208284031215614023576140226131b1565b5b600061403184828501613ff8565b91505092915050565b600060408201905061404f600083018561317d565b61405c6020830184613f14565b9392505050565b600067ffffffffffffffff82169050919050565b61408081614063565b82525050565b600081519050919050565b600082825260208201905092915050565b60005b838110156140c05780820151818401526020810190506140a5565b60008484015250505050565b60006140d782614086565b6140e18185614091565b93506140f18185602086016140a2565b6140fa816136b2565b840191505092915050565b600060808201905061411a6000830187614077565b614127602083018661317d565b614134604083018561317d565b818103606083015261414681846140cc565b905095945050505050565b60006060820190506141666000830186613f14565b614173602083018561317d565b614180604083018461317d565b949350505050565b6000815190506141978161335a565b92915050565b6000602082840312156141b3576141b26131b1565b5b60006141c184828501614188565b91505092915050565b600081519050919050565b7f4e487b7100000000000000000000000000000000000000000000000000000000600052602260045260246000fd5b6000600282049050600182168061421c57607f821691505b60208210810361422f5761422e6141d5565b5b50919050565b60008190508160005260206000209050919050565b60006020601f8301049050919050565b600082821b905092915050565b6000600883026142977fffffffffffffffffffffffffffffffffffffffffffffffffffffffffffffffff8261425a565b6142a1868361425a565b95508019841693508086168417925050509392505050565b60006142d46142cf6142ca846131bb565b613638565b6131bb565b9050919050565b6000819050919050565b6142ee836142b9565b6143026142fa826142db565b848454614267565b825550505050565b600090565b61431761430a565b6143228184846142e5565b505050565b5b818110156143465761433b60008261430f565b600181019050614328565b5050565b601f82111561438b5761435c81614235565b6143658461424a565b81016020851015614374578190505b6143886143808561424a565b830182614327565b50505b505050565b600082821c905092915050565b60006143ae60001984600802614390565b1980831691505092915050565b60006143c7838361439d565b9150826002028217905092915050565b6143e0826141ca565b67ffffffffffffffff8111156143f9576143f86136c3565b5b6144038254614204565b61440e82828561434a565b600060209050601f831160018114614441576000841561442f578287015190505b61443985826143bb565b8655506144a1565b601f19841661444f86614235565b60005b8281101561447757848901518255600182019150602085019450602081019050614452565b868310156144945784890151614490601f89168261439d565b8355505b6001600288020188555050505b505050505050565b600081905092915050565b60006144bf826141ca565b6144c981856144a9565b93506144d98185602086016140a2565b80840191505092915050565b60006144f182846144b4565b915081905092915050565b60008151905061450b816131c5565b92915050565b60008060006060848603121561452a576145296131b1565b5b6000614538868287016144fc565b935050602061454986828701613ff8565b925050604061455a86828701613ff8565b9150509250925092565b60006020828403121561457a576145796131b1565b5b6000614588848285016144fc565b91505092915050565b60006040820190506145a6600083018561317d565b6145b3602083018461317d565b9392505050565b60006145c68385614091565b93506145d3838584613962565b6145dc836136b2565b840190509392505050565b600060208201905081810360008301526146028184866145ba565b90509392505050565b600082825260208201905092915050565b6000614627826141ca565b614631818561460b565b93506146418185602086016140a2565b61464a816136b2565b840191505092915050565b600060a082019050818103600083015261466f818861461c565b90508181036020830152614683818761461c565b9050818103604083015261469781866140cc565b90506146a66060830185613f14565b81810360808301526146b881846140cc565b90509695505050505050565b7f4e487b7100000000000000000000000000000000000000000000000000000000600052601160045260246000fd5b60006146fe826131bb565b9150614709836131bb565b9250828202614717816131bb565b9150828204841483151761472e5761472d6146c4565b5b5092915050565b7f4e487b7100000000000000000000000000000000000000000000000000000000600052601260045260246000fd5b600061476f826131bb565b915061477a836131bb565b92508261478a57614789614735565b5b828204905092915050565b600060c0820190506147aa6000830189613535565b81810360208301526147bc818861461c565b905081810360408301526147d081876140cc565b90506147df6060830186613f14565b81810360808301526147f181856140cc565b905061480060a0830184613f14565b979650505050505050565b6148148161382d565b82525050565b61482381613350565b82525050565b614832816131bb565b82525050565b600082825260208201905092915050565b600061485482614086565b61485e8185614838565b935061486e8185602086016140a2565b614877816136b2565b840191505092915050565b600060e08301600083015161489a600086018261480b565b5060208301516148ad602086018261481a565b5060408301516148c06040860182614829565b5060608301516148d36060860182614829565b50608083015184820360808601526148eb8282614849565b91505060a083015184820360a08601526149058282614849565b91505060c083015184820360c086015261491f8282614849565b9150508091505092915050565b600060408201905081810360008301526149468185614882565b9050614955602083018461360e565b9392505050565b600080fd5b6000604082840312156149775761497661495c565b5b6149816040613723565b90506000614991848285016144fc565b60008301525060206149a5848285016144fc565b60208301525092915050565b6000604082840312156149c7576149c66131b1565b5b60006149d584828501614961565b91505092915050565b6040820160008201516149f46000850182614829565b506020820151614a076020850182614829565b50505050565b60006080820190508181036000830152614a278186614882565b9050614a3660208301856149de565b614a43606083018461317d565b949350505050565b614a5481614063565b8114614a5f57600080fd5b50565b600081519050614a7181614a4b565b92915050565b600060808284031215614a8d57614a8c61495c565b5b614a976060613723565b90506000614aa784828501614188565b6000830152506020614abb84828501614a62565b6020830152506040614acf84828501614961565b60408301525092915050565b600060408284031215614af157614af061495c565b5b614afb6040613723565b90506000614b0b848285016144fc565b6000830152506020614b1f848285016144fc565b60208301525092915050565b60008060c08385031215614b4257614b416131b1565b5b6000614b5085828601614a77565b9250506080614b6185828601614adb565b9150509250929050565b6000614b768261314b565b9050919050565b614b8681614b6b565b8114614b9157600080fd5b50565b600081359050614ba381614b7d565b92915050565b60008060408385031215614bc057614bbf6131b1565b5b6000614bce85828601614b94565b9250506020614bdf85828601614b94565b9150509250929050565b600080600060608486031215614c0257614c016131b1565b5b6000614c10868287016131dc565b9350506020614c2186828701614b94565b9250506040614c3286828701614b94565b9150509250925092565b6000604082019050614c516000830185613f14565b614c5e602083018461317d565b9392505050565b6000614c70826131bb565b9150614c7b836131bb565b9250828201905080821115614c9357614c926146c4565b5b92915050565b600081519050919050565b600082825260208201905092915050565b6000819050602082019050919050565b614cce8161316b565b82525050565b6000614ce08383614cc5565b60208301905092915050565b6000602082019050919050565b6000614d0482614c99565b614d0e8185614ca4565b9350614d1983614cb5565b8060005b83811015614d4a578151614d318882614cd4565b9750614d3c83614cec565b925050600181019050614d1d565b5085935050505092915050565b600060a082019050614d6c6000830188613f14565b614d796020830187613f14565b8181036040830152614d8b8186614cf9565b9050614d9a606083018561317d565b614da76080830184613f14565b9695505050505050565b6000614dc4614dbf8461373e565b613723565b90508083825260208201905060208402830185811115614de757614de66131fb565b5b835b81811015614e105780614dfc88826144fc565b845260208401935050602081019050614de9565b5050509392505050565b600082601f830112614e2f57614e2e6131f1565b5b8151614e3f848260208601614db1565b91505092915050565b600060208284031215614e5e57614e5d6131b1565b5b600082015167ffffffffffffffff811115614e7c57614e7b6131b6565b5b614e8884828501614e1a565b91505092915050565b600080fd5b600080fd5b60008085851115614eaf57614eae614e91565b5b83861115614ec057614ebf614e96565b5b6001850283019150848603905094509492505050565b600082905092915050565b6000614eed8383614ed6565b82614ef88135613350565b92506020821015614f3857614f337fffffffffffffffffffffffffffffffffffffffffffffffffffffffffffffffff8360200360080261425a565b831692505b505092915050565b60007fffffffff0000000000000000000000000000000000000000000000000000000082169050919050565b6000614f788383614ed6565b82614f838135614f40565b92506004821015614fc357614fbe7fffffffff000000000000000000000000000000000000000000000000000000008360040360080261425a565b831692505b505092915050565b600061ffff82169050919050565b60008160f01b9050919050565b6000614ff182614fd9565b9050919050565b61500961500482614fcb565b614fe6565b82525050565b600061501b8284614ff8565b60028201915081905092915050565b61503381614fcb565b82525050565b600060208201905061504e600083018461502a565b92915050565b7f746f55696e7431365f6f75744f66426f756e6473000000000000000000000000600082015250565b600061508a60148361460b565b915061509582615054565b602082019050919050565b600060208201905081810360008301526150b98161507d565b9050919050565b60006fffffffffffffffffffffffffffffffff82169050919050565b60008160801b9050919050565b60006150f4826150dc565b9050919050565b61510c615107826150c0565b6150e9565b82525050565b600061511e82856150fb565b60108201915061512e82846150fb565b6010820191508190509392505050565b600061514a82846150fb565b60108201915081905092915050565b600061516482614fcb565b915061516f83614fcb565b9250828201905061ffff811115615189576151886146c4565b5b92915050565b600081905092915050565b60006151a582614086565b6151af818561518f565b93506151bf8185602086016140a2565b80840191505092915050565b600060ff82169050919050565b60008160f81b9050919050565b60006151f0826151d8565b9050919050565b615208615203826151cb565b6151e5565b82525050565b600061521a828861519a565b915061522682876151f7565b6001820191506152368286614ff8565b60028201915061524682856151f7565b600182019150615256828461519a565b91508190509695505050505050565b60006152718286614ff8565b60028201915061528182856150fb565b60108201915061529182846150fb565b601082019150819050949350505050565b60006152ae8285614ff8565b6002820191506152be82846150fb565b6010820191508190509392505050565b6000819050919050565b60006152f36152ee6152e9846152ce565b613638565b6151cb565b9050919050565b615303816152d8565b82525050565b600060408201905061531e60008301856152fa565b61532b6020830184613f14565b939250505056fea2646970667358221220a7e6559645ef976deeeea919069d187c206ae6dd949999d65e70029bca2bd5fd64736f6c63430008180033",
  "linkReferences": {},
  "deployedLinkReferences": {}
}