{
  "_format": "hh-sol-artifact-1",
  "contractName": "Omnipool",
  "sourceName": "contracts/Omnipool.sol",
  "abi": [
    {
      "inputs": [
        {
          "internalType": "address",
          "name": "_bridgeToken",
          "type": "address"
        },
        {
          "internalType": "address",
          "name": "_portal",
          "type": "address"
        },
        {
          "internalType": "address",
          "name": "_interchainTokenService",
          "type": "address"
        },
        {
          "internalType": "address",
          "name": "_routerV2",
          "type": "address"
        },
        {
          "internalType": "address",
          "name": "_gasService",
          "type": "address"
        }
      ],
      "stateMutability": "nonpayable",
      "type": "constructor"
    },
    {
      "inputs": [],
      "name": "ChainNotSet",
      "type": "error"
    },
    {
      "inputs": [],
      "name": "IncorrectPath",
      "type": "error"
    },
    {
      "inputs": [],
      "name": "InsufficientInput",
      "type": "error"
    },
    {
      "inputs": [],
      "name": "InsufficientLiquidity",
      "type": "error"
    },
    {
      "inputs": [],
      "name": "NotPortal",
      "type": "error"
    },
    {
      "inputs": [
        {
          "internalType": "address",
          "name": "caller",
          "type": "address"
        }
      ],
      "name": "NotService",
      "type": "error"
    },
    {
      "inputs": [],
      "name": "NotTrustedRemote",
      "type": "error"
    },
    {
      "inputs": [
        {
          "internalType": "address",
          "name": "owner",
          "type": "address"
        }
      ],
      "name": "OwnableInvalidOwner",
      "type": "error"
    },
    {
      "inputs": [
        {
          "internalType": "address",
          "name": "account",
          "type": "address"
        }
      ],
      "name": "OwnableUnauthorizedAccount",
      "type": "error"
    },
    {
      "anonymous": false,
      "inputs": [
        {
          "indexed": true,
          "internalType": "address",
          "name": "previousOwner",
          "type": "address"
        },
        {
          "indexed": true,
          "internalType": "address",
          "name": "newOwner",
          "type": "address"
        }
      ],
      "name": "OwnershipTransferred",
      "type": "event"
    },
    {
      "inputs": [
        {
          "internalType": "bytes32",
          "name": "commandId",
          "type": "bytes32"
        },
        {
          "internalType": "string",
          "name": "sourceChain",
          "type": "string"
        },
        {
          "internalType": "bytes",
          "name": "sourceAddress",
          "type": "bytes"
        },
        {
          "internalType": "bytes",
          "name": "data",
          "type": "bytes"
        },
        {
          "internalType": "bytes32",
          "name": "tokenId",
          "type": "bytes32"
        },
        {
          "internalType": "address",
          "name": "token",
          "type": "address"
        },
        {
          "internalType": "uint256",
          "name": "amount",
          "type": "uint256"
        }
      ],
      "name": "executeWithInterchainToken",
      "outputs": [
        {
          "internalType": "bytes32",
          "name": "",
          "type": "bytes32"
        }
      ],
      "stateMutability": "nonpayable",
      "type": "function"
    },
    {
      "inputs": [],
      "name": "gasService",
      "outputs": [
        {
          "internalType": "contract IInterchainGasService",
          "name": "",
          "type": "address"
        }
      ],
      "stateMutability": "view",
      "type": "function"
    },
    {
      "inputs": [],
      "name": "getNative",
      "outputs": [],
      "stateMutability": "payable",
      "type": "function"
    },
    {
      "inputs": [],
      "name": "interchainTokenService",
      "outputs": [
        {
          "internalType": "address",
          "name": "",
          "type": "address"
        }
      ],
      "stateMutability": "view",
      "type": "function"
    },
    {
      "inputs": [
        {
          "internalType": "uint256",
          "name": "amountIn",
          "type": "uint256"
        },
        {
          "internalType": "uint256",
          "name": "amountOutMin",
          "type": "uint256"
        },
        {
          "internalType": "address[]",
          "name": "path",
          "type": "address[]"
        }
      ],
      "name": "omniswap",
      "outputs": [],
      "stateMutability": "payable",
      "type": "function"
    },
    {
      "inputs": [],
      "name": "owner",
      "outputs": [
        {
          "internalType": "address",
          "name": "",
          "type": "address"
        }
      ],
      "stateMutability": "view",
      "type": "function"
    },
    {
      "inputs": [],
      "name": "portal",
      "outputs": [
        {
          "internalType": "contract IQuantumPortalPoc",
          "name": "",
          "type": "address"
        }
      ],
      "stateMutability": "view",
      "type": "function"
    },
    {
      "inputs": [
        {
          "internalType": "uint256",
          "name": "amount",
          "type": "uint256"
        },
        {
          "internalType": "address",
          "name": "recipient",
          "type": "address"
        }
      ],
      "name": "release",
      "outputs": [],
      "stateMutability": "nonpayable",
      "type": "function"
    },
    {
      "inputs": [
        {
          "internalType": "uint256[]",
          "name": "chainIds",
          "type": "uint256[]"
        }
      ],
      "name": "removeRemotePeers",
      "outputs": [],
      "stateMutability": "nonpayable",
      "type": "function"
    },
    {
      "inputs": [],
      "name": "renounceOwnership",
      "outputs": [],
      "stateMutability": "nonpayable",
      "type": "function"
    },
    {
      "inputs": [],
      "name": "routerV2",
      "outputs": [
        {
          "internalType": "contract IRouterV2",
          "name": "",
          "type": "address"
        }
      ],
      "stateMutability": "view",
      "type": "function"
    },
    {
      "inputs": [
        {
          "internalType": "uint256[]",
          "name": "chainIds",
          "type": "uint256[]"
        },
        {
          "internalType": "string[]",
          "name": "chainNames",
          "type": "string[]"
        }
      ],
      "name": "setChainIdAndNamePairs",
      "outputs": [],
      "stateMutability": "nonpayable",
      "type": "function"
    },
    {
      "inputs": [
        {
          "internalType": "uint256",
          "name": "feeFactor",
          "type": "uint256"
        }
      ],
      "name": "setItsFeeFactor",
      "outputs": [],
      "stateMutability": "nonpayable",
      "type": "function"
    },
    {
      "inputs": [
        {
          "internalType": "uint256",
          "name": "fee",
          "type": "uint256"
        }
      ],
      "name": "setQpFee",
      "outputs": [],
      "stateMutability": "nonpayable",
      "type": "function"
    },
    {
      "inputs": [
        {
          "internalType": "uint256",
          "name": "gas",
          "type": "uint256"
        }
      ],
      "name": "setRemoteExecutionGas",
      "outputs": [],
      "stateMutability": "nonpayable",
      "type": "function"
    },
    {
      "inputs": [
        {
          "internalType": "uint256",
          "name": "amount",
          "type": "uint256"
        },
        {
          "internalType": "uint256",
          "name": "amountOutMin",
          "type": "uint256"
        },
        {
          "internalType": "address",
          "name": "toToken",
          "type": "address"
        },
        {
          "internalType": "address",
          "name": "recipient",
          "type": "address"
        }
      ],
      "name": "swapAndITSTransfer",
      "outputs": [],
      "stateMutability": "nonpayable",
      "type": "function"
    },
    {
      "inputs": [
        {
          "internalType": "uint256",
          "name": "amount",
          "type": "uint256"
        }
      ],
      "name": "sweepNative",
      "outputs": [],
      "stateMutability": "nonpayable",
      "type": "function"
    },
    {
      "inputs": [],
      "name": "sweepNative",
      "outputs": [],
      "stateMutability": "nonpayable",
      "type": "function"
    },
    {
      "inputs": [
        {
          "internalType": "address",
          "name": "token",
          "type": "address"
        },
        {
          "internalType": "uint256",
          "name": "amount",
          "type": "uint256"
        }
      ],
      "name": "sweepToken",
      "outputs": [],
      "stateMutability": "nonpayable",
      "type": "function"
    },
    {
      "inputs": [
        {
          "internalType": "address[]",
          "name": "token",
          "type": "address[]"
        }
      ],
      "name": "sweepTokens",
      "outputs": [],
      "stateMutability": "nonpayable",
      "type": "function"
    },
    {
      "inputs": [
        {
          "internalType": "address",
          "name": "newOwner",
          "type": "address"
        }
      ],
      "name": "transferOwnership",
      "outputs": [],
      "stateMutability": "nonpayable",
      "type": "function"
    },
    {
      "inputs": [
        {
          "internalType": "uint256",
          "name": "",
          "type": "uint256"
        }
      ],
      "name": "trustedRemotes",
      "outputs": [
        {
          "internalType": "address",
          "name": "",
          "type": "address"
        }
      ],
      "stateMutability": "view",
      "type": "function"
    },
    {
      "inputs": [
        {
          "internalType": "uint256[]",
          "name": "chainIds",
          "type": "uint256[]"
        },
        {
          "internalType": "address[]",
          "name": "remotes",
          "type": "address[]"
        }
      ],
      "name": "updateRemotePeers",
      "outputs": [],
      "stateMutability": "nonpayable",
      "type": "function"
    }
  ],
  "bytecode": "0x60a06040523480156200001157600080fd5b506040516200460038038062004600833981810160405281019062000037919062000353565b8232600073ffffffffffffffffffffffffffffffffffffffff168173ffffffffffffffffffffffffffffffffffffffff1603620000ae5760006040517f1e4fbdf7000000000000000000000000000000000000000000000000000000008152600401620000a59190620003ec565b60405180910390fd5b620000bf816200022560201b60201c565b508073ffffffffffffffffffffffffffffffffffffffff1660808173ffffffffffffffffffffffffffffffffffffffff16815250505084600760006101000a81548173ffffffffffffffffffffffffffffffffffffffff021916908373ffffffffffffffffffffffffffffffffffffffff16021790555083600860006101000a81548173ffffffffffffffffffffffffffffffffffffffff021916908373ffffffffffffffffffffffffffffffffffffffff16021790555081600960006101000a81548173ffffffffffffffffffffffffffffffffffffffff021916908373ffffffffffffffffffffffffffffffffffffffff16021790555080600a60006101000a81548173ffffffffffffffffffffffffffffffffffffffff021916908373ffffffffffffffffffffffffffffffffffffffff160217905550606e6001819055506207a120600281905550670de0b6b3a7640000600381905550505050505062000409565b60008060009054906101000a900473ffffffffffffffffffffffffffffffffffffffff169050816000806101000a81548173ffffffffffffffffffffffffffffffffffffffff021916908373ffffffffffffffffffffffffffffffffffffffff1602179055508173ffffffffffffffffffffffffffffffffffffffff168173ffffffffffffffffffffffffffffffffffffffff167f8be0079c531659141344cd1fd0a4f28419497f9722a3daafe3b4186f6b6457e060405160405180910390a35050565b600080fd5b600073ffffffffffffffffffffffffffffffffffffffff82169050919050565b60006200031b82620002ee565b9050919050565b6200032d816200030e565b81146200033957600080fd5b50565b6000815190506200034d8162000322565b92915050565b600080600080600060a08688031215620003725762000371620002e9565b5b600062000382888289016200033c565b955050602062000395888289016200033c565b9450506040620003a8888289016200033c565b9350506060620003bb888289016200033c565b9250506080620003ce888289016200033c565b9150509295509295909350565b620003e6816200030e565b82525050565b6000602082019050620004036000830184620003db565b92915050565b6080516141bf620004416000396000818161093801528181610b4f01528181610cbd0152818161128b015261143b01526141bf6000f3fe6080604052600436106101405760003560e01c8063687688d6116100b6578063909b19d91161006f578063909b19d914610411578063a85b53a21461043a578063ab803a7614610444578063c087c8371461045b578063e90a182f14610484578063f2fde38b146104ad57610140565b8063687688d6146103295780636a22d8cc146103525780636c6bde881461037d578063715018a6146103a65780638124fea6146103bd5780638da5cb5b146103e657610140565b806339d4ce0d1161010857806339d4ce0d1461022f5780633cf3a025146102585780634047e05114610281578063502f7446146102aa5780635a22ed4a146102d55780636425666b146102fe57610140565b806305f2efd21461014557806309c6bed91461016e5780630e1b3d2714610199578063162c0700146101b557806329241502146101f2575b600080fd5b34801561015157600080fd5b5061016c60048036038101906101679190612aca565b6104d6565b005b34801561017a57600080fd5b50610183610cbb565b6040516101909190612b40565b60405180910390f35b6101b360048036038101906101ae9190612bc0565b610cdf565b005b3480156101c157600080fd5b506101dc60048036038101906101d79190612c34565b611404565b6040516101e99190612b40565b60405180910390f35b3480156101fe57600080fd5b5061021960048036038101906102149190612d43565b611437565b6040516102269190612e55565b60405180910390f35b34801561023b57600080fd5b5061025660048036038101906102519190612ec6565b61150c565b005b34801561026457600080fd5b5061027f600480360381019061027a9190612c34565b611583565b005b34801561028d57600080fd5b506102a860048036038101906102a39190612c34565b6115dc565b005b3480156102b657600080fd5b506102bf6115ee565b6040516102cc9190612f72565b60405180910390f35b3480156102e157600080fd5b506102fc60048036038101906102f79190613272565b611614565b005b34801561030a57600080fd5b506103136116e6565b604051610320919061330b565b60405180910390f35b34801561033557600080fd5b50610350600480360381019061034b9190612c34565b61170c565b005b34801561035e57600080fd5b5061036761171e565b6040516103749190613347565b60405180910390f35b34801561038957600080fd5b506103a4600480360381019061039f9190613362565b611744565b005b3480156103b257600080fd5b506103bb611800565b005b3480156103c957600080fd5b506103e460048036038101906103df91906133e3565b611814565b005b3480156103f257600080fd5b506103fb611a73565b6040516104089190612b40565b60405180910390f35b34801561041d57600080fd5b50610438600480360381019061043391906134e6565b611a9c565b005b610442611bf4565b005b34801561045057600080fd5b50610459611bf6565b005b34801561046757600080fd5b50610482600480360381019061047d9190612c34565b611c4e565b005b34801561049057600080fd5b506104ab60048036038101906104a6919061352f565b611c60565b005b3480156104b957600080fd5b506104d460048036038101906104cf919061356f565b611cf2565b005b600860009054906101000a900473ffffffffffffffffffffffffffffffffffffffff1673ffffffffffffffffffffffffffffffffffffffff163373ffffffffffffffffffffffffffffffffffffffff161461055d576040517f3f94bdf300000000000000000000000000000000000000000000000000000000815260040160405180910390fd5b600080600860009054906101000a900473ffffffffffffffffffffffffffffffffffffffff1673ffffffffffffffffffffffffffffffffffffffff1663d737d0c76040518163ffffffff1660e01b8152600401606060405180830381865afa1580156105cd573d6000803e3d6000fd5b505050506040513d601f19601f820116820180604052508101906105f191906135c6565b50915091508073ffffffffffffffffffffffffffffffffffffffff166004600084815260200190815260200160002060009054906101000a900473ffffffffffffffffffffffffffffffffffffffff1673ffffffffffffffffffffffffffffffffffffffff161461068e576040517fca90f86e00000000000000000000000000000000000000000000000000000000815260040160405180910390fd5b600760009054906101000a900473ffffffffffffffffffffffffffffffffffffffff1673ffffffffffffffffffffffffffffffffffffffff1663095ea7b3600960009054906101000a900473ffffffffffffffffffffffffffffffffffffffff16886040518363ffffffff1660e01b815260040161070d929190613628565b6020604051808303816000875af115801561072c573d6000803e3d6000fd5b505050506040513d601f19601f820116820180604052508101906107509190613689565b506000600267ffffffffffffffff81111561076e5761076d612f9e565b5b60405190808252806020026020018201604052801561079c5781602001602082028036833780820191505090505b509050600760009054906101000a900473ffffffffffffffffffffffffffffffffffffffff16816000815181106107d6576107d56136b6565b5b602002602001019073ffffffffffffffffffffffffffffffffffffffff16908173ffffffffffffffffffffffffffffffffffffffff16815250508481600181518110610825576108246136b6565b5b602002602001019073ffffffffffffffffffffffffffffffffffffffff16908173ffffffffffffffffffffffffffffffffffffffff16815250506000600960009054906101000a900473ffffffffffffffffffffffffffffffffffffffff1673ffffffffffffffffffffffffffffffffffffffff166338ed173989898530600a426108b09190613714565b6040518663ffffffff1660e01b81526004016108d0959493929190613806565b6000604051808303816000875af11580156108ef573d6000803e3d6000fd5b505050506040513d6000823e3d601f19601f8201168201806040525081019061091891906138f7565b90508573ffffffffffffffffffffffffffffffffffffffff1663095ea7b37f00000000000000000000000000000000000000000000000000000000000000008360018151811061096b5761096a6136b6565b5b60200260200101516040518363ffffffff1660e01b8152600401610990929190613628565b6020604051808303816000875af11580156109af573d6000803e3d6000fd5b505050506040513d601f19601f820116820180604052508101906109d39190613689565b506000856040516020016109e79190612b40565b604051602081830303815290604052905060006064600154600a60009054906101000a900473ffffffffffffffffffffffffffffffffffffffff1673ffffffffffffffffffffffffffffffffffffffff1663135eaa70610a476038611d78565b610a84600460006038815260200190815260200160002060009054906101000a900473ffffffffffffffffffffffffffffffffffffffff16611e5e565b87600254600067ffffffffffffffff811115610aa357610aa2612f9e565b5b6040519080825280601f01601f191660200182016040528015610ad55781602001600182028036833780820191505090505b506040518663ffffffff1660e01b8152600401610af6959493929190613a14565b602060405180830381865afa158015610b13573d6000803e3d6000fd5b505050506040513d601f19601f82011682018060405250810190610b379190613a83565b610b419190613ab0565b610b4b9190613b21565b90507f000000000000000000000000000000000000000000000000000000000000000073ffffffffffffffffffffffffffffffffffffffff16634b4578ba828a73ffffffffffffffffffffffffffffffffffffffff1663129d81886040518163ffffffff1660e01b8152600401602060405180830381865afa158015610bd5573d6000803e3d6000fd5b505050506040513d601f19601f82011682018060405250810190610bf99190613b67565b610c028a611d78565b610c3e600460008d815260200190815260200160002060009054906101000a900473ffffffffffffffffffffffffffffffffffffffff16611e5e565b88600181518110610c5257610c516136b6565b5b602002602001015188886040518863ffffffff1660e01b8152600401610c7d96959493929190613b94565b6000604051808303818588803b158015610c9657600080fd5b505af1158015610caa573d6000803e3d6000fd5b505050505050505050505050505050565b7f000000000000000000000000000000000000000000000000000000000000000081565b60008403610d19576040517ff8b3bb6100000000000000000000000000000000000000000000000000000000815260040160405180910390fd5b81816000818110610d2d57610d2c6136b6565b5b9050602002016020810190610d42919061356f565b73ffffffffffffffffffffffffffffffffffffffff166323b872dd3330876040518463ffffffff1660e01b8152600401610d7e93929190613c0a565b6020604051808303816000875af1158015610d9d573d6000803e3d6000fd5b505050506040513d601f19601f82011682018060405250810190610dc19190613689565b506000610dce8383611ebf565b90506000810361110e576000858585856001818110610df057610def6136b6565b5b9050602002016020810190610e05919061356f565b33604051602401610e199493929190613c41565b6040516020818303038152906040527f05f2efd2000000000000000000000000000000000000000000000000000000007bffffffffffffffffffffffffffffffffffffffffffffffffffffffff19166020820180517bffffffffffffffffffffffffffffffffffffffffffffffffffffffff83818316178352505050509050600860009054906101000a900473ffffffffffffffffffffffffffffffffffffffff1673ffffffffffffffffffffffffffffffffffffffff1663647846a56040518163ffffffff1660e01b8152600401602060405180830381865afa158015610f05573d6000803e3d6000fd5b505050506040513d601f19601f82011682018060405250810190610f299190613c86565b73ffffffffffffffffffffffffffffffffffffffff1663a9059cbb600860009054906101000a900473ffffffffffffffffffffffffffffffffffffffff1673ffffffffffffffffffffffffffffffffffffffff1663cd3c695a6040518163ffffffff1660e01b8152600401602060405180830381865afa158015610fb1573d6000803e3d6000fd5b505050506040513d601f19601f82011682018060405250810190610fd59190613c86565b6003546040518363ffffffff1660e01b8152600401610ff5929190613628565b6020604051808303816000875af1158015611014573d6000803e3d6000fd5b505050506040513d601f19601f820116820180604052508101906110389190613689565b50600860009054906101000a900473ffffffffffffffffffffffffffffffffffffffff1673ffffffffffffffffffffffffffffffffffffffff166359ff51cc6038600460006038815260200190815260200160002060009054906101000a900473ffffffffffffffffffffffffffffffffffffffff166110b6611a73565b856040518563ffffffff1660e01b81526004016110d69493929190613cd6565b600060405180830381600087803b1580156110f057600080fd5b505af1158015611104573d6000803e3d6000fd5b50505050506113fd565b60008433604051602001611123929190613d22565b604051602081830303815290604052905060006064600154600a60009054906101000a900473ffffffffffffffffffffffffffffffffffffffff1673ffffffffffffffffffffffffffffffffffffffff1663135eaa706111836038611d78565b6111c0600460006038815260200190815260200160002060009054906101000a900473ffffffffffffffffffffffffffffffffffffffff16611e5e565b87600254600067ffffffffffffffff8111156111df576111de612f9e565b5b6040519080825280601f01601f1916602001820160405280156112115781602001600182028036833780820191505090505b506040518663ffffffff1660e01b8152600401611232959493929190613a14565b602060405180830381865afa15801561124f573d6000803e3d6000fd5b505050506040513d601f19601f820116820180604052508101906112739190613a83565b61127d9190613ab0565b6112879190613b21565b90507f000000000000000000000000000000000000000000000000000000000000000073ffffffffffffffffffffffffffffffffffffffff16634b4578ba82878760008181106112da576112d96136b6565b5b90506020020160208101906112ef919061356f565b73ffffffffffffffffffffffffffffffffffffffff1663129d81886040518163ffffffff1660e01b8152600401602060405180830381865afa158015611339573d6000803e3d6000fd5b505050506040513d601f19601f8201168201806040525081019061135d9190613b67565b6113676038611d78565b6113a4600460006038815260200190815260200160002060009054906101000a900473ffffffffffffffffffffffffffffffffffffffff16611e5e565b8c88886040518863ffffffff1660e01b81526004016113c896959493929190613b94565b6000604051808303818588803b1580156113e157600080fd5b505af11580156113f5573d6000803e3d6000fd5b505050505050505b5050505050565b60046020528060005260406000206000915054906101000a900473ffffffffffffffffffffffffffffffffffffffff1681565b60007f000000000000000000000000000000000000000000000000000000000000000073ffffffffffffffffffffffffffffffffffffffff163373ffffffffffffffffffffffffffffffffffffffff16146114c957336040517f0d6c7be90000000000000000000000000000000000000000000000000000000081526004016114c09190612b40565b60405180910390fd5b6114db8b8b8b8b8b8b8b8b8b8b612043565b7fe84001f3dedacf7f9ddc370e9f09c26b37473e9e959ffdc4925f6fe33c9877e490509a9950505050505050505050565b611514612816565b60005b8282905081101561157e5760046000848484818110611539576115386136b6565b5b90506020020135815260200190815260200160002060006101000a81549073ffffffffffffffffffffffffffffffffffffffff02191690558080600101915050611517565b505050565b61158b612816565b611593611a73565b73ffffffffffffffffffffffffffffffffffffffff166108fc829081150290604051600060405180830381858888f193505050501580156115d8573d6000803e3d6000fd5b5050565b6115e4612816565b8060028190555050565b600960009054906101000a900473ffffffffffffffffffffffffffffffffffffffff1681565b61161c612816565b60005b82518110156116e15781818151811061163b5761163a6136b6565b5b60200260200101516005600085848151811061165a576116596136b6565b5b60200260200101518152602001908152602001600020908161167c9190613f4d565b508281815181106116905761168f6136b6565b5b602002602001015160068383815181106116ad576116ac6136b6565b5b60200260200101516040516116c2919061405b565b908152602001604051809103902081905550808060010191505061161f565b505050565b600860009054906101000a900473ffffffffffffffffffffffffffffffffffffffff1681565b611714612816565b8060018190555050565b600a60009054906101000a900473ffffffffffffffffffffffffffffffffffffffff1681565b61174c612816565b60005b848490508110156117f95782828281811061176d5761176c6136b6565b5b9050602002016020810190611782919061356f565b60046000878785818110611799576117986136b6565b5b90506020020135815260200190815260200160002060006101000a81548173ffffffffffffffffffffffffffffffffffffffff021916908373ffffffffffffffffffffffffffffffffffffffff160217905550808060010191505061174f565b5050505050565b611808612816565b611812600061289d565b565b600860009054906101000a900473ffffffffffffffffffffffffffffffffffffffff1673ffffffffffffffffffffffffffffffffffffffff163373ffffffffffffffffffffffffffffffffffffffff161461189b576040517f3f94bdf300000000000000000000000000000000000000000000000000000000815260040160405180910390fd5b600080600860009054906101000a900473ffffffffffffffffffffffffffffffffffffffff1673ffffffffffffffffffffffffffffffffffffffff1663d737d0c76040518163ffffffff1660e01b8152600401606060405180830381865afa15801561190b573d6000803e3d6000fd5b505050506040513d601f19601f8201168201806040525081019061192f91906135c6565b50915091508073ffffffffffffffffffffffffffffffffffffffff166004600084815260200190815260200160002060009054906101000a900473ffffffffffffffffffffffffffffffffffffffff1673ffffffffffffffffffffffffffffffffffffffff16146119cc576040517fca90f86e00000000000000000000000000000000000000000000000000000000815260040160405180910390fd5b600760009054906101000a900473ffffffffffffffffffffffffffffffffffffffff1673ffffffffffffffffffffffffffffffffffffffff1663a9059cbb84866040518363ffffffff1660e01b8152600401611a29929190613628565b6020604051808303816000875af1158015611a48573d6000803e3d6000fd5b505050506040513d601f19601f82011682018060405250810190611a6c9190613689565b5050505050565b60008060009054906101000a900473ffffffffffffffffffffffffffffffffffffffff16905090565b611aa4612816565b60005b8151811015611bf057818181518110611ac357611ac26136b6565b5b602002602001015173ffffffffffffffffffffffffffffffffffffffff1663a9059cbb611aee611a73565b848481518110611b0157611b006136b6565b5b602002602001015173ffffffffffffffffffffffffffffffffffffffff166370a08231306040518263ffffffff1660e01b8152600401611b419190612b40565b602060405180830381865afa158015611b5e573d6000803e3d6000fd5b505050506040513d601f19601f82011682018060405250810190611b829190613a83565b6040518363ffffffff1660e01b8152600401611b9f929190613628565b6020604051808303816000875af1158015611bbe573d6000803e3d6000fd5b505050506040513d601f19601f82011682018060405250810190611be29190613689565b508080600101915050611aa7565b5050565b565b611bfe612816565b611c06611a73565b73ffffffffffffffffffffffffffffffffffffffff166108fc479081150290604051600060405180830381858888f19350505050158015611c4b573d6000803e3d6000fd5b50565b611c56612816565b8060038190555050565b611c68612816565b8173ffffffffffffffffffffffffffffffffffffffff1663a9059cbb611c8c611a73565b836040518363ffffffff1660e01b8152600401611caa929190613628565b6020604051808303816000875af1158015611cc9573d6000803e3d6000fd5b505050506040513d601f19601f82011682018060405250810190611ced9190613689565b505050565b611cfa612816565b600073ffffffffffffffffffffffffffffffffffffffff168173ffffffffffffffffffffffffffffffffffffffff1603611d6c5760006040517f1e4fbdf7000000000000000000000000000000000000000000000000000000008152600401611d639190612b40565b60405180910390fd5b611d758161289d565b50565b60606000600560008481526020019081526020016000208054611d9a90613d7a565b80601f0160208091040260200160405190810160405280929190818152602001828054611dc690613d7a565b8015611e135780601f10611de857610100808354040283529160200191611e13565b820191906000526020600020905b815481529060010190602001808311611df657829003601f168201915b505050505090506000815103611e55576040517f0d0fa6c500000000000000000000000000000000000000000000000000000000815260040160405180910390fd5b80915050919050565b6060601467ffffffffffffffff811115611e7b57611e7a612f9e565b5b6040519080825280601f01601f191660200182016040528015611ead5781602001600182028036833780820191505090505b50905081601482015260148152919050565b60006002838390501015611eff576040517f9046666e00000000000000000000000000000000000000000000000000000000815260040160405180910390fd5b600760009054906101000a900473ffffffffffffffffffffffffffffffffffffffff1673ffffffffffffffffffffffffffffffffffffffff1683836000818110611f4c57611f4b6136b6565b5b9050602002016020810190611f61919061356f565b73ffffffffffffffffffffffffffffffffffffffff1603611f85576000905061203d565b600760009054906101000a900473ffffffffffffffffffffffffffffffffffffffff1673ffffffffffffffffffffffffffffffffffffffff1683836001818110611fd257611fd16136b6565b5b9050602002016020810190611fe7919061356f565b73ffffffffffffffffffffffffffffffffffffffff160361200b576001905061203d565b6040517f9046666e00000000000000000000000000000000000000000000000000000000815260040160405180910390fd5b92915050565b61209087878080601f016020809104026020016040519081016040528093929190818152602001838380828437600081840152601f19601f82011690508083019250505050505050612961565b73ffffffffffffffffffffffffffffffffffffffff16600460006120f78c8c8080601f016020809104026020016040519081016040528093929190818152602001838380828437600081840152601f19601f820116905080830192505050505050506129b3565b815260200190815260200160002060009054906101000a900473ffffffffffffffffffffffffffffffffffffffff1673ffffffffffffffffffffffffffffffffffffffff1614612173576040517fca90f86e00000000000000000000000000000000000000000000000000000000815260040160405180910390fd5b60208585905003612216576000858581019061218f91906140b0565b90508273ffffffffffffffffffffffffffffffffffffffff1663a9059cbb82846040518363ffffffff1660e01b81526004016121cc929190613628565b6020604051808303816000875af11580156121eb573d6000803e3d6000fd5b505050506040513d601f19601f8201168201806040525081019061220f9190613689565b505061280a565b8173ffffffffffffffffffffffffffffffffffffffff1663095ea7b3600960009054906101000a900473ffffffffffffffffffffffffffffffffffffffff16836040518363ffffffff1660e01b8152600401612273929190613628565b6020604051808303816000875af1158015612292573d6000803e3d6000fd5b505050506040513d601f19601f820116820180604052508101906122b69190613689565b5060008086868101906122c991906140dd565b91509150600061231c8c8c8080601f016020809104026020016040519081016040528093929190818152602001838380828437600081840152601f19601f820116905080830192505050505050506129b3565b9050600080600267ffffffffffffffff81111561233c5761233b612f9e565b5b60405190808252806020026020018201604052801561236a5781602001602082028036833780820191505090505b5090508681600081518110612382576123816136b6565b5b602002602001019073ffffffffffffffffffffffffffffffffffffffff16908173ffffffffffffffffffffffffffffffffffffffff1681525050600760009054906101000a900473ffffffffffffffffffffffffffffffffffffffff16816001815181106123f3576123f26136b6565b5b602002602001019073ffffffffffffffffffffffffffffffffffffffff16908173ffffffffffffffffffffffffffffffffffffffff16815250506000600960009054906101000a900473ffffffffffffffffffffffffffffffffffffffff1673ffffffffffffffffffffffffffffffffffffffff166338ed173988888530600a4261247e9190613714565b6040518663ffffffff1660e01b815260040161249e959493929190613806565b6000604051808303816000875af11580156124bd573d6000803e3d6000fd5b505050506040513d6000823e3d601f19601f820116820180604052508101906124e691906138f7565b9050806001815181106124fc576124fb6136b6565b5b602002602001015192505050600860009054906101000a900473ffffffffffffffffffffffffffffffffffffffff1673ffffffffffffffffffffffffffffffffffffffff1663647846a56040518163ffffffff1660e01b8152600401602060405180830381865afa158015612575573d6000803e3d6000fd5b505050506040513d601f19601f820116820180604052508101906125999190613c86565b73ffffffffffffffffffffffffffffffffffffffff1663a9059cbb600860009054906101000a900473ffffffffffffffffffffffffffffffffffffffff1673ffffffffffffffffffffffffffffffffffffffff1663cd3c695a6040518163ffffffff1660e01b8152600401602060405180830381865afa158015612621573d6000803e3d6000fd5b505050506040513d601f19601f820116820180604052508101906126459190613c86565b6003546040518363ffffffff1660e01b8152600401612665929190613628565b6020604051808303816000875af1158015612684573d6000803e3d6000fd5b505050506040513d601f19601f820116820180604052508101906126a89190613689565b50600860009054906101000a900473ffffffffffffffffffffffffffffffffffffffff1673ffffffffffffffffffffffffffffffffffffffff166359ff51cc836004600086815260200190815260200160002060009054906101000a900473ffffffffffffffffffffffffffffffffffffffff16612724611a73565b8588604051602401612737929190613d22565b6040516020818303038152906040527f8124fea6000000000000000000000000000000000000000000000000000000007bffffffffffffffffffffffffffffffffffffffffffffffffffffffff19166020820180517bffffffffffffffffffffffffffffffffffffffffffffffffffffffff83818316178352505050506040518563ffffffff1660e01b81526004016127d39493929190613cd6565b600060405180830381600087803b1580156127ed57600080fd5b505af1158015612801573d6000803e3d6000fd5b50505050505050505b50505050505050505050565b61281e612a1a565b73ffffffffffffffffffffffffffffffffffffffff1661283c611a73565b73ffffffffffffffffffffffffffffffffffffffff161461289b5761285f612a1a565b6040517f118cdaa70000000000000000000000000000000000000000000000000000000081526004016128929190612b40565b60405180910390fd5b565b60008060009054906101000a900473ffffffffffffffffffffffffffffffffffffffff169050816000806101000a81548173ffffffffffffffffffffffffffffffffffffffff021916908373ffffffffffffffffffffffffffffffffffffffff1602179055508173ffffffffffffffffffffffffffffffffffffffff168173ffffffffffffffffffffffffffffffffffffffff167f8be0079c531659141344cd1fd0a4f28419497f9722a3daafe3b4186f6b6457e060405160405180910390a35050565b600060148251146129a7576040517f08c379a000000000000000000000000000000000000000000000000000000000815260040161299e90614169565b60405180910390fd5b60148201519050919050565b6000806006836040516129c6919061405b565b908152602001604051809103902054905060008103612a11576040517f0d0fa6c500000000000000000000000000000000000000000000000000000000815260040160405180910390fd5b80915050919050565b600033905090565b6000604051905090565b600080fd5b600080fd5b6000819050919050565b612a4981612a36565b8114612a5457600080fd5b50565b600081359050612a6681612a40565b92915050565b600073ffffffffffffffffffffffffffffffffffffffff82169050919050565b6000612a9782612a6c565b9050919050565b612aa781612a8c565b8114612ab257600080fd5b50565b600081359050612ac481612a9e565b92915050565b60008060008060808587031215612ae457612ae3612a2c565b5b6000612af287828801612a57565b9450506020612b0387828801612a57565b9350506040612b1487828801612ab5565b9250506060612b2587828801612ab5565b91505092959194509250565b612b3a81612a8c565b82525050565b6000602082019050612b556000830184612b31565b92915050565b600080fd5b600080fd5b600080fd5b60008083601f840112612b8057612b7f612b5b565b5b8235905067ffffffffffffffff811115612b9d57612b9c612b60565b5b602083019150836020820283011115612bb957612bb8612b65565b5b9250929050565b60008060008060608587031215612bda57612bd9612a2c565b5b6000612be887828801612a57565b9450506020612bf987828801612a57565b935050604085013567ffffffffffffffff811115612c1a57612c19612a31565b5b612c2687828801612b6a565b925092505092959194509250565b600060208284031215612c4a57612c49612a2c565b5b6000612c5884828501612a57565b91505092915050565b6000819050919050565b612c7481612c61565b8114612c7f57600080fd5b50565b600081359050612c9181612c6b565b92915050565b60008083601f840112612cad57612cac612b5b565b5b8235905067ffffffffffffffff811115612cca57612cc9612b60565b5b602083019150836001820283011115612ce657612ce5612b65565b5b9250929050565b60008083601f840112612d0357612d02612b5b565b5b8235905067ffffffffffffffff811115612d2057612d1f612b60565b5b602083019150836001820283011115612d3c57612d3b612b65565b5b9250929050565b60008060008060008060008060008060e08b8d031215612d6657612d65612a2c565b5b6000612d748d828e01612c82565b9a505060208b013567ffffffffffffffff811115612d9557612d94612a31565b5b612da18d828e01612c97565b995099505060408b013567ffffffffffffffff811115612dc457612dc3612a31565b5b612dd08d828e01612ced565b975097505060608b013567ffffffffffffffff811115612df357612df2612a31565b5b612dff8d828e01612ced565b95509550506080612e128d828e01612c82565b93505060a0612e238d828e01612ab5565b92505060c0612e348d828e01612a57565b9150509295989b9194979a5092959850565b612e4f81612c61565b82525050565b6000602082019050612e6a6000830184612e46565b92915050565b60008083601f840112612e8657612e85612b5b565b5b8235905067ffffffffffffffff811115612ea357612ea2612b60565b5b602083019150836020820283011115612ebf57612ebe612b65565b5b9250929050565b60008060208385031215612edd57612edc612a2c565b5b600083013567ffffffffffffffff811115612efb57612efa612a31565b5b612f0785828601612e70565b92509250509250929050565b6000819050919050565b6000612f38612f33612f2e84612a6c565b612f13565b612a6c565b9050919050565b6000612f4a82612f1d565b9050919050565b6000612f5c82612f3f565b9050919050565b612f6c81612f51565b82525050565b6000602082019050612f876000830184612f63565b92915050565b6000601f19601f8301169050919050565b7f4e487b7100000000000000000000000000000000000000000000000000000000600052604160045260246000fd5b612fd682612f8d565b810181811067ffffffffffffffff82111715612ff557612ff4612f9e565b5b80604052505050565b6000613008612a22565b90506130148282612fcd565b919050565b600067ffffffffffffffff82111561303457613033612f9e565b5b602082029050602081019050919050565b600061305861305384613019565b612ffe565b9050808382526020820190506020840283018581111561307b5761307a612b65565b5b835b818110156130a457806130908882612a57565b84526020840193505060208101905061307d565b5050509392505050565b600082601f8301126130c3576130c2612b5b565b5b81356130d3848260208601613045565b91505092915050565b600067ffffffffffffffff8211156130f7576130f6612f9e565b5b602082029050602081019050919050565b600080fd5b600067ffffffffffffffff82111561312857613127612f9e565b5b61313182612f8d565b9050602081019050919050565b82818337600083830152505050565b600061316061315b8461310d565b612ffe565b90508281526020810184848401111561317c5761317b613108565b5b61318784828561313e565b509392505050565b600082601f8301126131a4576131a3612b5b565b5b81356131b484826020860161314d565b91505092915050565b60006131d06131cb846130dc565b612ffe565b905080838252602082019050602084028301858111156131f3576131f2612b65565b5b835b8181101561323a57803567ffffffffffffffff81111561321857613217612b5b565b5b808601613225898261318f565b855260208501945050506020810190506131f5565b5050509392505050565b600082601f83011261325957613258612b5b565b5b81356132698482602086016131bd565b91505092915050565b6000806040838503121561328957613288612a2c565b5b600083013567ffffffffffffffff8111156132a7576132a6612a31565b5b6132b3858286016130ae565b925050602083013567ffffffffffffffff8111156132d4576132d3612a31565b5b6132e085828601613244565b9150509250929050565b60006132f582612f3f565b9050919050565b613305816132ea565b82525050565b600060208201905061332060008301846132fc565b92915050565b600061333182612f3f565b9050919050565b61334181613326565b82525050565b600060208201905061335c6000830184613338565b92915050565b6000806000806040858703121561337c5761337b612a2c565b5b600085013567ffffffffffffffff81111561339a57613399612a31565b5b6133a687828801612e70565b9450945050602085013567ffffffffffffffff8111156133c9576133c8612a31565b5b6133d587828801612b6a565b925092505092959194509250565b600080604083850312156133fa576133f9612a2c565b5b600061340885828601612a57565b925050602061341985828601612ab5565b9150509250929050565b600067ffffffffffffffff82111561343e5761343d612f9e565b5b602082029050602081019050919050565b600061346261345d84613423565b612ffe565b9050808382526020820190506020840283018581111561348557613484612b65565b5b835b818110156134ae578061349a8882612ab5565b845260208401935050602081019050613487565b5050509392505050565b600082601f8301126134cd576134cc612b5b565b5b81356134dd84826020860161344f565b91505092915050565b6000602082840312156134fc576134fb612a2c565b5b600082013567ffffffffffffffff81111561351a57613519612a31565b5b613526848285016134b8565b91505092915050565b6000806040838503121561354657613545612a2c565b5b600061355485828601612ab5565b925050602061356585828601612a57565b9150509250929050565b60006020828403121561358557613584612a2c565b5b600061359384828501612ab5565b91505092915050565b6000815190506135ab81612a40565b92915050565b6000815190506135c081612a9e565b92915050565b6000806000606084860312156135df576135de612a2c565b5b60006135ed8682870161359c565b93505060206135fe868287016135b1565b925050604061360f868287016135b1565b9150509250925092565b61362281612a36565b82525050565b600060408201905061363d6000830185612b31565b61364a6020830184613619565b9392505050565b60008115159050919050565b61366681613651565b811461367157600080fd5b50565b6000815190506136838161365d565b92915050565b60006020828403121561369f5761369e612a2c565b5b60006136ad84828501613674565b91505092915050565b7f4e487b7100000000000000000000000000000000000000000000000000000000600052603260045260246000fd5b7f4e487b7100000000000000000000000000000000000000000000000000000000600052601160045260246000fd5b600061371f82612a36565b915061372a83612a36565b9250828201905080821115613742576137416136e5565b5b92915050565b600081519050919050565b600082825260208201905092915050565b6000819050602082019050919050565b61377d81612a8c565b82525050565b600061378f8383613774565b60208301905092915050565b6000602082019050919050565b60006137b382613748565b6137bd8185613753565b93506137c883613764565b8060005b838110156137f95781516137e08882613783565b97506137eb8361379b565b9250506001810190506137cc565b5085935050505092915050565b600060a08201905061381b6000830188613619565b6138286020830187613619565b818103604083015261383a81866137a8565b90506138496060830185612b31565b6138566080830184613619565b9695505050505050565b600061387361386e84613019565b612ffe565b9050808382526020820190506020840283018581111561389657613895612b65565b5b835b818110156138bf57806138ab888261359c565b845260208401935050602081019050613898565b5050509392505050565b600082601f8301126138de576138dd612b5b565b5b81516138ee848260208601613860565b91505092915050565b60006020828403121561390d5761390c612a2c565b5b600082015167ffffffffffffffff81111561392b5761392a612a31565b5b613937848285016138c9565b91505092915050565b600081519050919050565b600082825260208201905092915050565b60005b8381101561397a57808201518184015260208101905061395f565b60008484015250505050565b600061399182613940565b61399b818561394b565b93506139ab81856020860161395c565b6139b481612f8d565b840191505092915050565b600081519050919050565b600082825260208201905092915050565b60006139e6826139bf565b6139f081856139ca565b9350613a0081856020860161395c565b613a0981612f8d565b840191505092915050565b600060a0820190508181036000830152613a2e8188613986565b90508181036020830152613a428187613986565b90508181036040830152613a5681866139db565b9050613a656060830185613619565b8181036080830152613a7781846139db565b90509695505050505050565b600060208284031215613a9957613a98612a2c565b5b6000613aa78482850161359c565b91505092915050565b6000613abb82612a36565b9150613ac683612a36565b9250828202613ad481612a36565b91508282048414831517613aeb57613aea6136e5565b5b5092915050565b7f4e487b7100000000000000000000000000000000000000000000000000000000600052601260045260246000fd5b6000613b2c82612a36565b9150613b3783612a36565b925082613b4757613b46613af2565b5b828204905092915050565b600081519050613b6181612c6b565b92915050565b600060208284031215613b7d57613b7c612a2c565b5b6000613b8b84828501613b52565b91505092915050565b600060c082019050613ba96000830189612e46565b8181036020830152613bbb8188613986565b90508181036040830152613bcf81876139db565b9050613bde6060830186613619565b8181036080830152613bf081856139db565b9050613bff60a0830184613619565b979650505050505050565b6000606082019050613c1f6000830186612b31565b613c2c6020830185612b31565b613c396040830184613619565b949350505050565b6000608082019050613c566000830187613619565b613c636020830186613619565b613c706040830185612b31565b613c7d6060830184612b31565b95945050505050565b600060208284031215613c9c57613c9b612a2c565b5b6000613caa848285016135b1565b91505092915050565b600067ffffffffffffffff82169050919050565b613cd081613cb3565b82525050565b6000608082019050613ceb6000830187613cc7565b613cf86020830186612b31565b613d056040830185612b31565b8181036060830152613d1781846139db565b905095945050505050565b6000604082019050613d376000830185613619565b613d446020830184612b31565b9392505050565b7f4e487b7100000000000000000000000000000000000000000000000000000000600052602260045260246000fd5b60006002820490506001821680613d9257607f821691505b602082108103613da557613da4613d4b565b5b50919050565b60008190508160005260206000209050919050565b60006020601f8301049050919050565b600082821b905092915050565b600060088302613e0d7fffffffffffffffffffffffffffffffffffffffffffffffffffffffffffffffff82613dd0565b613e178683613dd0565b95508019841693508086168417925050509392505050565b6000613e4a613e45613e4084612a36565b612f13565b612a36565b9050919050565b6000819050919050565b613e6483613e2f565b613e78613e7082613e51565b848454613ddd565b825550505050565b600090565b613e8d613e80565b613e98818484613e5b565b505050565b5b81811015613ebc57613eb1600082613e85565b600181019050613e9e565b5050565b601f821115613f0157613ed281613dab565b613edb84613dc0565b81016020851015613eea578190505b613efe613ef685613dc0565b830182613e9d565b50505b505050565b600082821c905092915050565b6000613f2460001984600802613f06565b1980831691505092915050565b6000613f3d8383613f13565b9150826002028217905092915050565b613f5682613940565b67ffffffffffffffff811115613f6f57613f6e612f9e565b5b613f798254613d7a565b613f84828285613ec0565b600060209050601f831160018114613fb75760008415613fa5578287015190505b613faf8582613f31565b865550614017565b601f198416613fc586613dab565b60005b82811015613fed57848901518255600182019150602085019450602081019050613fc8565b8683101561400a5784890151614006601f891682613f13565b8355505b6001600288020188555050505b505050505050565b600081905092915050565b600061403582613940565b61403f818561401f565b935061404f81856020860161395c565b80840191505092915050565b6000614067828461402a565b915081905092915050565b600061407d82612a6c565b9050919050565b61408d81614072565b811461409857600080fd5b50565b6000813590506140aa81614084565b92915050565b6000602082840312156140c6576140c5612a2c565b5b60006140d48482850161409b565b91505092915050565b600080604083850312156140f4576140f3612a2c565b5b600061410285828601612a57565b92505060206141138582860161409b565b9150509250929050565b7f4954534170703a20496e76616c69642061646472657373206c656e6774680000600082015250565b6000614153601e8361394b565b915061415e8261411d565b602082019050919050565b6000602082019050818103600083015261418281614146565b905091905056fea264697066735822122027e3b5fa33b43542992d2137c50f8857299edc88d4f707b83cbee3bd57051adc64736f6c63430008180033",
  "linkReferences": {},
  "deployedLinkReferences": {}
}